{
  "_format": "hh-sol-artifact-1",
  "contractName": "MockVRFCoordinator",
  "sourceName": "contracts/MockVRFCoordinator.sol",
  "abi": [
    {
      "inputs": [],
      "stateMutability": "nonpayable",
      "type": "constructor"
    },
    {
      "anonymous": false,
      "inputs": [
        {
          "indexed": true,
          "internalType": "uint256",
          "name": "requestId",
          "type": "uint256"
        },
        {
          "indexed": false,
          "internalType": "uint256",
          "name": "outputSeed",
          "type": "uint256"
        },
        {
          "indexed": false,
          "internalType": "uint96",
          "name": "payment",
          "type": "uint96"
        },
        {
          "indexed": false,
          "internalType": "bool",
          "name": "success",
          "type": "bool"
        }
      ],
      "name": "RandomWordsFulfilled",
      "type": "event"
    },
    {
      "anonymous": false,
      "inputs": [
        {
          "indexed": true,
          "internalType": "bytes32",
          "name": "keyHash",
          "type": "bytes32"
        },
        {
          "indexed": false,
          "internalType": "uint256",
          "name": "requestId",
          "type": "uint256"
        },
        {
          "indexed": false,
          "internalType": "uint256",
          "name": "preSeed",
          "type": "uint256"
        },
        {
          "indexed": true,
          "internalType": "uint64",
          "name": "subId",
          "type": "uint64"
        },
        {
          "indexed": false,
          "internalType": "uint16",
          "name": "minimumRequestConfirmations",
          "type": "uint16"
        },
        {
          "indexed": false,
          "internalType": "uint32",
          "name": "callbackGasLimit",
          "type": "uint32"
        },
        {
          "indexed": false,
          "internalType": "uint32",
          "name": "numWords",
          "type": "uint32"
        },
        {
          "indexed": true,
          "internalType": "bytes",
          "name": "extraArgs",
          "type": "bytes"
        }
      ],
      "name": "RequestRandomWords",
      "type": "event"
    },
    {
      "inputs": [],
      "name": "MAX_CONSUMERS",
      "outputs": [
        {
          "internalType": "uint16",
          "name": "",
          "type": "uint16"
        }
      ],
      "stateMutability": "view",
      "type": "function"
    },
    {
      "inputs": [],
      "name": "MAX_GAS_LIMIT",
      "outputs": [
        {
          "internalType": "uint32",
          "name": "",
          "type": "uint32"
        }
      ],
      "stateMutability": "view",
      "type": "function"
    },
    {
      "inputs": [],
      "name": "MAX_NUM_WORDS",
      "outputs": [
        {
          "internalType": "uint16",
          "name": "",
          "type": "uint16"
        }
      ],
      "stateMutability": "view",
      "type": "function"
    },
    {
      "inputs": [],
      "name": "MAX_REQUEST_CONFIRMATIONS",
      "outputs": [
        {
          "internalType": "uint32",
          "name": "",
          "type": "uint32"
        }
      ],
      "stateMutability": "view",
      "type": "function"
    },
    {
      "inputs": [],
      "name": "MAX_REQUEST_VALUE",
      "outputs": [
        {
          "internalType": "uint256",
          "name": "",
          "type": "uint256"
        }
      ],
      "stateMutability": "view",
      "type": "function"
    },
    {
      "inputs": [
        {
          "internalType": "uint64",
          "name": "subId",
          "type": "uint64"
        }
      ],
      "name": "acceptSubscriptionOwnerTransfer",
      "outputs": [],
      "stateMutability": "nonpayable",
      "type": "function"
    },
    {
      "inputs": [
        {
          "internalType": "uint64",
          "name": "subId",
          "type": "uint64"
        },
        {
          "internalType": "address",
          "name": "consumer",
          "type": "address"
        }
      ],
      "name": "addConsumer",
      "outputs": [],
      "stateMutability": "nonpayable",
      "type": "function"
    },
    {
      "inputs": [
        {
          "internalType": "uint64",
          "name": "subId",
          "type": "uint64"
        },
        {
          "internalType": "address",
          "name": "to",
          "type": "address"
        }
      ],
      "name": "cancelSubscription",
      "outputs": [],
      "stateMutability": "nonpayable",
      "type": "function"
    },
    {
      "inputs": [
        {
          "internalType": "uint256",
          "name": "",
          "type": "uint256"
        }
      ],
      "name": "consumers",
      "outputs": [
        {
          "internalType": "address",
          "name": "",
          "type": "address"
        }
      ],
      "stateMutability": "view",
      "type": "function"
    },
    {
      "inputs": [],
      "name": "createSubscription",
      "outputs": [
        {
          "internalType": "uint64",
          "name": "",
          "type": "uint64"
        }
      ],
      "stateMutability": "nonpayable",
      "type": "function"
    },
    {
      "inputs": [],
      "name": "getRequestConfig",
      "outputs": [
        {
          "internalType": "uint16",
          "name": "",
          "type": "uint16"
        },
        {
          "internalType": "uint32",
          "name": "",
          "type": "uint32"
        },
        {
          "internalType": "bytes32[]",
          "name": "",
          "type": "bytes32[]"
        }
      ],
      "stateMutability": "pure",
      "type": "function"
    },
    {
      "inputs": [
        {
          "internalType": "uint64",
          "name": "subId",
          "type": "uint64"
        }
      ],
      "name": "getSubscription",
      "outputs": [
        {
          "internalType": "uint96",
          "name": "balance",
          "type": "uint96"
        },
        {
          "internalType": "uint64",
          "name": "reqCount",
          "type": "uint64"
        },
        {
          "internalType": "address",
          "name": "owner",
          "type": "address"
        },
        {
          "internalType": "address[]",
          "name": "consumers_list",
          "type": "address[]"
        }
      ],
      "stateMutability": "view",
      "type": "function"
    },
    {
      "inputs": [
        {
          "internalType": "uint64",
          "name": "subId",
          "type": "uint64"
        }
      ],
      "name": "pendingRequestExists",
      "outputs": [
        {
          "internalType": "bool",
          "name": "",
          "type": "bool"
        }
      ],
      "stateMutability": "view",
      "type": "function"
    },
    {
      "inputs": [
        {
          "internalType": "uint64",
          "name": "subId",
          "type": "uint64"
        },
        {
          "internalType": "address",
          "name": "consumer",
          "type": "address"
        }
      ],
      "name": "removeConsumer",
      "outputs": [],
      "stateMutability": "nonpayable",
      "type": "function"
    },
    {
      "inputs": [
        {
          "internalType": "uint256",
          "name": "",
          "type": "uint256"
        }
      ],
      "name": "requestCounts",
      "outputs": [
        {
          "internalType": "uint256",
          "name": "",
          "type": "uint256"
        }
      ],
      "stateMutability": "view",
      "type": "function"
    },
    {
      "inputs": [
        {
          "internalType": "bytes32",
          "name": "keyHash",
          "type": "bytes32"
        },
        {
          "internalType": "uint64",
          "name": "subId",
          "type": "uint64"
        },
        {
          "internalType": "uint16",
          "name": "requestConfirmations",
          "type": "uint16"
        },
        {
          "internalType": "uint32",
          "name": "callbackGasLimit",
          "type": "uint32"
        },
        {
          "internalType": "uint32",
          "name": "numWords",
          "type": "uint32"
        }
      ],
      "name": "requestRandomWords",
      "outputs": [
        {
          "internalType": "uint256",
          "name": "",
          "type": "uint256"
        }
      ],
      "stateMutability": "nonpayable",
      "type": "function"
    },
    {
      "inputs": [
        {
          "internalType": "uint64",
          "name": "subId",
          "type": "uint64"
        },
        {
          "internalType": "address",
          "name": "newOwner",
          "type": "address"
        }
      ],
      "name": "requestSubscriptionOwnerTransfer",
      "outputs": [],
      "stateMutability": "nonpayable",
      "type": "function"
    }
  ],
  "bytecode": "0x6080604052348015600f57600080fd5b506118868061001f6000396000f3fe608060405234801561001057600080fd5b506004361061010a5760003560e01c806364d51a2a116100a2578063a21a23e411610071578063a21a23e4146102a7578063a47c7696146102c5578063d7ae1d30146102f8578063e3f5aa5114610314578063e82ad7d4146103325761010a565b806364d51a2a146102355780637341c10c14610253578063823597401461026f5780639f87fad71461028b5761010a565b806315c48b84116100de57806315c48b841461019957806340d6bb82146101b75780634651ed3d146101d55780635d3b1d30146102055761010a565b80620122911461010f57806304c357cb1461012f57806304d73dfc1461014b5780630a7ccdb31461017b575b600080fd5b610117610362565b60405161012693929190610d6c565b60405180910390f35b61014960048036038101906101449190610e4d565b6103c2565b005b61016560048036038101906101609190610ec3565b610470565b6040516101729190610eff565b60405180910390f35b610183610488565b6040516101909190610eff565b60405180910390f35b6101a1610494565b6040516101ae9190610f1a565b60405180910390f35b6101bf610499565b6040516101cc9190610f35565b60405180910390f35b6101ef60048036038101906101ea9190610ec3565b61049f565b6040516101fc9190610f5f565b60405180910390f35b61021f600480360381019061021a9190610ffe565b6104d2565b60405161022c9190610eff565b60405180910390f35b61023d610889565b60405161024a9190610f35565b60405180910390f35b61026d60048036038101906102689190610e4d565b61088e565b005b61028960048036038101906102849190611079565b610997565b005b6102a560048036038101906102a09190610e4d565b61099a565b005b6102af610a48565b6040516102bc91906110b5565b60405180910390f35b6102df60048036038101906102da9190611079565b610ab0565b6040516102ef94939291906111b5565b60405180910390f35b610312600480360381019061030d9190610e4d565b610b6d565b005b61031c610c5a565b6040516103299190610f1a565b60405180910390f35b61034c60048036038101906103479190611079565b610c61565b604051610359919061121c565b60405180910390f35b600080606060c8622625a0600067ffffffffffffffff81111561038857610387611237565b5b6040519080825280602002602001820160405280156103b65781602001602082028036833780820191505090505b50925092509250909192565b3373ffffffffffffffffffffffffffffffffffffffff166000808467ffffffffffffffff16815260200190815260200160002060009054906101000a900473ffffffffffffffffffffffffffffffffffffffff1673ffffffffffffffffffffffffffffffffffffffff161461046c576040517f08c379a0000000000000000000000000000000000000000000000000000000008152600401610463906112c3565b60405180910390fd5b5050565b60016020528060005260406000206000915090505481565b670de0b6b3a764000081565b60c881565b6101f481565b60006020528060005260406000206000915054906101000a900473ffffffffffffffffffffffffffffffffffffffff1681565b60006101f461ffff168263ffffffff161115610523576040517f08c379a000000000000000000000000000000000000000000000000000000000815260040161051a9061132f565b60405180910390fd5b60c863ffffffff168461ffff161115610571576040517f08c379a00000000000000000000000000000000000000000000000000000000081526004016105689061139b565b60405180910390fd5b6000424433600160008a67ffffffffffffffff168152602001908152602001600020546040516020016105a79493929190611424565b6040516020818303038152906040528051906020012060001c9050600160008767ffffffffffffffff16815260200190815260200160002060008154809291906105f0906114a1565b91905055506040516106019061151a565b60405180910390208667ffffffffffffffff16887fe793bce6b7898aadb47535d2f438b59e3250ef6350f1340c829217476a4dcc4f84600143610644919061152f565b4060001c8a8a8a60405161065c959493929190611563565b60405180910390a460008363ffffffff1667ffffffffffffffff81111561068657610685611237565b5b6040519080825280602002602001820160405280156106b45781602001602082028036833780820191505090505b50905060005b8463ffffffff168163ffffffff16101561073057424484836040516020016106e594939291906115ec565b6040516020818303038152906040528051906020012060001c828263ffffffff16815181106107175761071661163a565b5b60200260200101818152505080806001019150506106ba565b5060003373ffffffffffffffffffffffffffffffffffffffff16838360405160240161075d929190611727565b6040516020818303038152906040527f1fe543e3000000000000000000000000000000000000000000000000000000007bffffffffffffffffffffffffffffffffffffffffffffffffffffffff19166020820180517bffffffffffffffffffffffffffffffffffffffffffffffffffffffff83818316178352505050506040516107e791906117bd565b6000604051808303816000865af19150503d8060008114610824576040519150601f19603f3d011682016040523d82523d6000602084013e610829565b606091505b50509050827f7dffc5ae5ee4e2e4df1651cf6ad329a73cebdb728f37ea0187b9b17e036756e460014361085c919061152f565b4060001c60008460405161087293929190611819565b60405180910390a282935050505095945050505050565b606481565b3373ffffffffffffffffffffffffffffffffffffffff166000808467ffffffffffffffff16815260200190815260200160002060009054906101000a900473ffffffffffffffffffffffffffffffffffffffff1673ffffffffffffffffffffffffffffffffffffffff1614610938576040517f08c379a000000000000000000000000000000000000000000000000000000000815260040161092f906112c3565b60405180910390fd5b806000808467ffffffffffffffff16815260200190815260200160002060006101000a81548173ffffffffffffffffffffffffffffffffffffffff021916908373ffffffffffffffffffffffffffffffffffffffff1602179055505050565b50565b3373ffffffffffffffffffffffffffffffffffffffff166000808467ffffffffffffffff16815260200190815260200160002060009054906101000a900473ffffffffffffffffffffffffffffffffffffffff1673ffffffffffffffffffffffffffffffffffffffff1614610a44576040517f08c379a0000000000000000000000000000000000000000000000000000000008152600401610a3b906112c3565b60405180910390fd5b5050565b600080429050336000808367ffffffffffffffff16815260200190815260200160002060006101000a81548173ffffffffffffffffffffffffffffffffffffffff021916908373ffffffffffffffffffffffffffffffffffffffff1602179055508091505090565b600080600060606000600160008767ffffffffffffffff168152602001908152602001600020546000808867ffffffffffffffff16815260200190815260200160002060009054906101000a900473ffffffffffffffffffffffffffffffffffffffff16600067ffffffffffffffff811115610b2f57610b2e611237565b5b604051908082528060200260200182016040528015610b5d5781602001602082028036833780820191505090505b5093509350935093509193509193565b3373ffffffffffffffffffffffffffffffffffffffff166000808467ffffffffffffffff16815260200190815260200160002060009054906101000a900473ffffffffffffffffffffffffffffffffffffffff1673ffffffffffffffffffffffffffffffffffffffff1614610c17576040517f08c379a0000000000000000000000000000000000000000000000000000000008152600401610c0e906112c3565b60405180910390fd5b6000808367ffffffffffffffff16815260200190815260200160002060006101000a81549073ffffffffffffffffffffffffffffffffffffffff02191690555050565b622625a081565b6000919050565b600061ffff82169050919050565b610c7f81610c68565b82525050565b600063ffffffff82169050919050565b610c9e81610c85565b82525050565b600081519050919050565b600082825260208201905092915050565b6000819050602082019050919050565b6000819050919050565b610ce381610cd0565b82525050565b6000610cf58383610cda565b60208301905092915050565b6000602082019050919050565b6000610d1982610ca4565b610d238185610caf565b9350610d2e83610cc0565b8060005b83811015610d5f578151610d468882610ce9565b9750610d5183610d01565b925050600181019050610d32565b5085935050505092915050565b6000606082019050610d816000830186610c76565b610d8e6020830185610c95565b8181036040830152610da08184610d0e565b9050949350505050565b600080fd5b600067ffffffffffffffff82169050919050565b610dcc81610daf565b8114610dd757600080fd5b50565b600081359050610de981610dc3565b92915050565b600073ffffffffffffffffffffffffffffffffffffffff82169050919050565b6000610e1a82610def565b9050919050565b610e2a81610e0f565b8114610e3557600080fd5b50565b600081359050610e4781610e21565b92915050565b60008060408385031215610e6457610e63610daa565b5b6000610e7285828601610dda565b9250506020610e8385828601610e38565b9150509250929050565b6000819050919050565b610ea081610e8d565b8114610eab57600080fd5b50565b600081359050610ebd81610e97565b92915050565b600060208284031215610ed957610ed8610daa565b5b6000610ee784828501610eae565b91505092915050565b610ef981610e8d565b82525050565b6000602082019050610f146000830184610ef0565b92915050565b6000602082019050610f2f6000830184610c95565b92915050565b6000602082019050610f4a6000830184610c76565b92915050565b610f5981610e0f565b82525050565b6000602082019050610f746000830184610f50565b92915050565b610f8381610cd0565b8114610f8e57600080fd5b50565b600081359050610fa081610f7a565b92915050565b610faf81610c68565b8114610fba57600080fd5b50565b600081359050610fcc81610fa6565b92915050565b610fdb81610c85565b8114610fe657600080fd5b50565b600081359050610ff881610fd2565b92915050565b600080600080600060a0868803121561101a57611019610daa565b5b600061102888828901610f91565b955050602061103988828901610dda565b945050604061104a88828901610fbd565b935050606061105b88828901610fe9565b925050608061106c88828901610fe9565b9150509295509295909350565b60006020828403121561108f5761108e610daa565b5b600061109d84828501610dda565b91505092915050565b6110af81610daf565b82525050565b60006020820190506110ca60008301846110a6565b92915050565b60006bffffffffffffffffffffffff82169050919050565b6110f1816110d0565b82525050565b600081519050919050565b600082825260208201905092915050565b6000819050602082019050919050565b61112c81610e0f565b82525050565b600061113e8383611123565b60208301905092915050565b6000602082019050919050565b6000611162826110f7565b61116c8185611102565b935061117783611113565b8060005b838110156111a857815161118f8882611132565b975061119a8361114a565b92505060018101905061117b565b5085935050505092915050565b60006080820190506111ca60008301876110e8565b6111d760208301866110a6565b6111e46040830185610f50565b81810360608301526111f68184611157565b905095945050505050565b60008115159050919050565b61121681611201565b82525050565b6000602082019050611231600083018461120d565b92915050565b7f4e487b7100000000000000000000000000000000000000000000000000000000600052604160045260246000fd5b600082825260208201905092915050565b7f496e76616c696420737562736372697074696f6e000000000000000000000000600082015250565b60006112ad601483611266565b91506112b882611277565b602082019050919050565b600060208201905081810360008301526112dc816112a0565b9050919050565b7f546f6f206d616e792072616e646f6d20776f7264732072657175657374656400600082015250565b6000611319601f83611266565b9150611324826112e3565b602082019050919050565b600060208201905081810360008301526113488161130c565b9050919050565b7f546f6f206d616e7920636f6e6669726d6174696f6e7300000000000000000000600082015250565b6000611385601683611266565b91506113908261134f565b602082019050919050565b600060208201905081810360008301526113b481611378565b9050919050565b6000819050919050565b6113d66113d182610e8d565b6113bb565b82525050565b60008160601b9050919050565b60006113f4826113dc565b9050919050565b6000611406826113e9565b9050919050565b61141e61141982610e0f565b6113fb565b82525050565b600061143082876113c5565b60208201915061144082866113c5565b602082019150611450828561140d565b60148201915061146082846113c5565b60208201915081905095945050505050565b7f4e487b7100000000000000000000000000000000000000000000000000000000600052601160045260246000fd5b60006114ac82610e8d565b91507fffffffffffffffffffffffffffffffffffffffffffffffffffffffffffffffff82036114de576114dd611472565b5b600182019050919050565b600081905092915050565b50565b60006115046000836114e9565b915061150f826114f4565b600082019050919050565b6000611525826114f7565b9150819050919050565b600061153a82610e8d565b915061154583610e8d565b925082820390508181111561155d5761155c611472565b5b92915050565b600060a0820190506115786000830188610ef0565b6115856020830187610ef0565b6115926040830186610c76565b61159f6060830185610c95565b6115ac6080830184610c95565b9695505050505050565b60008160e01b9050919050565b60006115ce826115b6565b9050919050565b6115e66115e182610c85565b6115c3565b82525050565b60006115f882876113c5565b60208201915061160882866113c5565b60208201915061161882856113c5565b60208201915061162882846115d5565b60048201915081905095945050505050565b7f4e487b7100000000000000000000000000000000000000000000000000000000600052603260045260246000fd5b600081519050919050565b600082825260208201905092915050565b6000819050602082019050919050565b61169e81610e8d565b82525050565b60006116b08383611695565b60208301905092915050565b6000602082019050919050565b60006116d482611669565b6116de8185611674565b93506116e983611685565b8060005b8381101561171a57815161170188826116a4565b975061170c836116bc565b9250506001810190506116ed565b5085935050505092915050565b600060408201905061173c6000830185610ef0565b818103602083015261174e81846116c9565b90509392505050565b600081519050919050565b60005b83811015611780578082015181840152602081019050611765565b60008484015250505050565b600061179782611757565b6117a181856114e9565b93506117b1818560208601611762565b80840191505092915050565b60006117c9828461178c565b915081905092915050565b6000819050919050565b6000819050919050565b60006118036117fe6117f9846117d4565b6117de565b6110d0565b9050919050565b611813816117e8565b82525050565b600060608201905061182e6000830186610ef0565b61183b602083018561180a565b611848604083018461120d565b94935050505056fea2646970667358221220db353457bb624b7138828a45e324d28d549882a4b1a3599d0e33a25225a6135d64736f6c634300081c0033",
  "linkReferences": {},
  "deployedLinkReferences": {}
}