{
  "_format": "hh-sol-artifact-1",
  "contractName": "MockVRFCoordinator",
  "sourceName": "contracts/MockVRFCoordinator.sol",
  "abi": [
    {
      "inputs": [],
      "stateMutability": "nonpayable",
      "type": "constructor"
    },
    {
      "anonymous": false,
      "inputs": [
        {
          "indexed": true,
          "internalType": "uint256",
          "name": "requestId",
          "type": "uint256"
        },
        {
          "indexed": false,
          "internalType": "uint256",
          "name": "outputSeed",
          "type": "uint256"
        },
        {
          "indexed": false,
          "internalType": "uint96",
          "name": "payment",
          "type": "uint96"
        },
        {
          "indexed": false,
          "internalType": "bool",
          "name": "success",
          "type": "bool"
        }
      ],
      "name": "RandomWordsFulfilled",
      "type": "event"
    },
    {
      "anonymous": false,
      "inputs": [
        {
          "indexed": true,
          "internalType": "bytes32",
          "name": "keyHash",
          "type": "bytes32"
        },
        {
          "indexed": false,
          "internalType": "uint256",
          "name": "requestId",
          "type": "uint256"
        },
        {
          "indexed": false,
          "internalType": "uint256",
          "name": "preSeed",
          "type": "uint256"
        },
        {
          "indexed": true,
          "internalType": "uint64",
          "name": "subId",
          "type": "uint64"
        },
        {
          "indexed": false,
          "internalType": "uint16",
          "name": "minimumRequestConfirmations",
          "type": "uint16"
        },
        {
          "indexed": false,
          "internalType": "uint32",
          "name": "callbackGasLimit",
          "type": "uint32"
        },
        {
          "indexed": false,
          "internalType": "uint32",
          "name": "numWords",
          "type": "uint32"
        },
        {
          "indexed": true,
          "internalType": "bytes",
          "name": "extraArgs",
          "type": "bytes"
        }
      ],
      "name": "RequestRandomWords",
      "type": "event"
    },
    {
      "anonymous": false,
      "inputs": [
        {
          "indexed": true,
          "internalType": "uint64",
          "name": "subId",
          "type": "uint64"
        },
        {
          "indexed": false,
          "internalType": "address",
          "name": "consumer",
          "type": "address"
        }
      ],
      "name": "SubscriptionConsumerAdded",
      "type": "event"
    },
    {
      "anonymous": false,
      "inputs": [
        {
          "indexed": true,
          "internalType": "uint64",
          "name": "subId",
          "type": "uint64"
        },
        {
          "indexed": false,
          "internalType": "address",
          "name": "owner",
          "type": "address"
        }
      ],
      "name": "SubscriptionCreated",
      "type": "event"
    },
    {
      "inputs": [],
      "name": "MAX_CONSUMERS",
      "outputs": [
        {
          "internalType": "uint16",
          "name": "",
          "type": "uint16"
        }
      ],
      "stateMutability": "view",
      "type": "function"
    },
    {
      "inputs": [],
      "name": "MAX_GAS_LIMIT",
      "outputs": [
        {
          "internalType": "uint32",
          "name": "",
          "type": "uint32"
        }
      ],
      "stateMutability": "view",
      "type": "function"
    },
    {
      "inputs": [],
      "name": "MAX_NUM_WORDS",
      "outputs": [
        {
          "internalType": "uint16",
          "name": "",
          "type": "uint16"
        }
      ],
      "stateMutability": "view",
      "type": "function"
    },
    {
      "inputs": [],
      "name": "MAX_REQUEST_CONFIRMATIONS",
      "outputs": [
        {
          "internalType": "uint32",
          "name": "",
          "type": "uint32"
        }
      ],
      "stateMutability": "view",
      "type": "function"
    },
    {
      "inputs": [],
      "name": "MAX_REQUEST_VALUE",
      "outputs": [
        {
          "internalType": "uint256",
          "name": "",
          "type": "uint256"
        }
      ],
      "stateMutability": "view",
      "type": "function"
    },
    {
      "inputs": [
        {
          "internalType": "uint64",
          "name": "subId",
          "type": "uint64"
        }
      ],
      "name": "acceptSubscriptionOwnerTransfer",
      "outputs": [],
      "stateMutability": "nonpayable",
      "type": "function"
    },
    {
      "inputs": [
        {
          "internalType": "uint64",
          "name": "subId",
          "type": "uint64"
        },
        {
          "internalType": "address",
          "name": "consumer",
          "type": "address"
        }
      ],
      "name": "addConsumer",
      "outputs": [],
      "stateMutability": "nonpayable",
      "type": "function"
    },
    {
      "inputs": [
        {
          "internalType": "uint64",
          "name": "subId",
          "type": "uint64"
        },
        {
          "internalType": "address",
          "name": "to",
          "type": "address"
        }
      ],
      "name": "cancelSubscription",
      "outputs": [],
      "stateMutability": "nonpayable",
      "type": "function"
    },
    {
      "inputs": [],
      "name": "createSubscription",
      "outputs": [
        {
          "internalType": "uint64",
          "name": "",
          "type": "uint64"
        }
      ],
      "stateMutability": "nonpayable",
      "type": "function"
    },
    {
      "inputs": [
        {
          "internalType": "uint64",
          "name": "subId",
          "type": "uint64"
        }
      ],
      "name": "getConsumers",
      "outputs": [
        {
          "internalType": "address[]",
          "name": "",
          "type": "address[]"
        }
      ],
      "stateMutability": "view",
      "type": "function"
    },
    {
      "inputs": [],
      "name": "getRequestConfig",
      "outputs": [
        {
          "internalType": "uint16",
          "name": "",
          "type": "uint16"
        },
        {
          "internalType": "uint32",
          "name": "",
          "type": "uint32"
        },
        {
          "internalType": "bytes32[]",
          "name": "",
          "type": "bytes32[]"
        }
      ],
      "stateMutability": "pure",
      "type": "function"
    },
    {
      "inputs": [
        {
          "internalType": "uint64",
          "name": "subId",
          "type": "uint64"
        }
      ],
      "name": "getSubscription",
      "outputs": [
        {
          "internalType": "uint96",
          "name": "balance",
          "type": "uint96"
        },
        {
          "internalType": "uint64",
          "name": "reqCount",
          "type": "uint64"
        },
        {
          "internalType": "address",
          "name": "owner",
          "type": "address"
        },
        {
          "internalType": "address[]",
          "name": "consumers_list",
          "type": "address[]"
        }
      ],
      "stateMutability": "view",
      "type": "function"
    },
    {
      "inputs": [
        {
          "internalType": "uint64",
          "name": "subId",
          "type": "uint64"
        }
      ],
      "name": "pendingRequestExists",
      "outputs": [
        {
          "internalType": "bool",
          "name": "",
          "type": "bool"
        }
      ],
      "stateMutability": "view",
      "type": "function"
    },
    {
      "inputs": [
        {
          "internalType": "uint64",
          "name": "subId",
          "type": "uint64"
        },
        {
          "internalType": "address",
          "name": "consumer",
          "type": "address"
        }
      ],
      "name": "removeConsumer",
      "outputs": [],
      "stateMutability": "nonpayable",
      "type": "function"
    },
    {
      "inputs": [
        {
          "internalType": "uint256",
          "name": "",
          "type": "uint256"
        }
      ],
      "name": "requestCounts",
      "outputs": [
        {
          "internalType": "uint256",
          "name": "",
          "type": "uint256"
        }
      ],
      "stateMutability": "view",
      "type": "function"
    },
    {
      "inputs": [
        {
          "internalType": "bytes32",
          "name": "keyHash",
          "type": "bytes32"
        },
        {
          "internalType": "uint64",
          "name": "subId",
          "type": "uint64"
        },
        {
          "internalType": "uint16",
          "name": "requestConfirmations",
          "type": "uint16"
        },
        {
          "internalType": "uint32",
          "name": "callbackGasLimit",
          "type": "uint32"
        },
        {
          "internalType": "uint32",
          "name": "numWords",
          "type": "uint32"
        }
      ],
      "name": "requestRandomWords",
      "outputs": [
        {
          "internalType": "uint256",
          "name": "",
          "type": "uint256"
        }
      ],
      "stateMutability": "nonpayable",
      "type": "function"
    },
    {
      "inputs": [
        {
          "internalType": "uint64",
          "name": "subId",
          "type": "uint64"
        },
        {
          "internalType": "address",
          "name": "newOwner",
          "type": "address"
        }
      ],
      "name": "requestSubscriptionOwnerTransfer",
      "outputs": [],
      "stateMutability": "nonpayable",
      "type": "function"
    },
    {
      "inputs": [
        {
          "internalType": "uint256",
          "name": "",
          "type": "uint256"
        },
        {
          "internalType": "uint256",
          "name": "",
          "type": "uint256"
        }
      ],
      "name": "subscriptionConsumers",
      "outputs": [
        {
          "internalType": "address",
          "name": "",
          "type": "address"
        }
      ],
      "stateMutability": "view",
      "type": "function"
    },
    {
      "inputs": [
        {
          "internalType": "uint256",
          "name": "",
          "type": "uint256"
        }
      ],
      "name": "subscriptionOwners",
      "outputs": [
        {
          "internalType": "address",
          "name": "",
          "type": "address"
        }
      ],
      "stateMutability": "view",
      "type": "function"
    }
  ],
  "bytecode": "0x6080604052348015600f57600080fd5b506120198061001f6000396000f3fe608060405234801561001057600080fd5b50600436106101205760003560e01c806364d51a2a116100ad578063a47c769611610071578063a47c76961461030b578063a54c43901461033e578063d7ae1d301461036e578063e3f5aa511461038a578063e82ad7d4146103a857610120565b806364d51a2a1461027b5780637341c10c1461029957806382359740146102b55780639f87fad7146102d1578063a21a23e4146102ed57610120565b806312e28cc1116100f457806312e28cc1146101af57806315c48b84146101df5780632011eeb8146101fd57806340d6bb821461022d5780635d3b1d301461024b57610120565b80620122911461012557806304c357cb1461014557806304d73dfc146101615780630a7ccdb314610191575b600080fd5b61012d6103d8565b60405161013c939291906113ce565b60405180910390f35b61015f600480360381019061015a91906114af565b610438565b005b61017b60048036038101906101769190611525565b6104e6565b6040516101889190611561565b60405180910390f35b6101996104fe565b6040516101a69190611561565b60405180910390f35b6101c960048036038101906101c4919061157c565b61050a565b6040516101d69190611667565b60405180910390f35b6101e76105b5565b6040516101f49190611689565b60405180910390f35b61021760048036038101906102129190611525565b6105ba565b60405161022491906116b3565b60405180910390f35b6102356105ed565b60405161024291906116ce565b60405180910390f35b6102656004803603810190610260919061176d565b6105f3565b6040516102729190611561565b60405180910390f35b6102836109f3565b60405161029091906116ce565b60405180910390f35b6102b360048036038101906102ae91906114af565b6109f8565b005b6102cf60048036038101906102ca919061157c565b610c1d565b005b6102eb60048036038101906102e691906114af565b610c20565b005b6102f5610e71565b60405161030291906117f7565b60405180910390f35b6103256004803603810190610320919061157c565b610f3c565b6040516103359493929190611839565b60405180910390f35b61035860048036038101906103539190611885565b611054565b60405161036591906116b3565b60405180910390f35b610388600480360381019061038391906114af565b6110a2565b005b6103926111b8565b60405161039f9190611689565b60405180910390f35b6103c260048036038101906103bd919061157c565b6111bf565b6040516103cf91906118e0565b60405180910390f35b600080606060c8622625a0600067ffffffffffffffff8111156103fe576103fd6118fb565b5b60405190808252806020026020018201604052801561042c5781602001602082028036833780820191505090505b50925092509250909192565b3373ffffffffffffffffffffffffffffffffffffffff166000808467ffffffffffffffff16815260200190815260200160002060009054906101000a900473ffffffffffffffffffffffffffffffffffffffff1673ffffffffffffffffffffffffffffffffffffffff16146104e2576040517f08c379a00000000000000000000000000000000000000000000000000000000081526004016104d990611987565b60405180910390fd5b5050565b60026020528060005260406000206000915090505481565b670de0b6b3a764000081565b6060600160008367ffffffffffffffff1681526020019081526020016000208054806020026020016040519081016040528092919081815260200182805480156105a957602002820191906000526020600020905b8160009054906101000a900473ffffffffffffffffffffffffffffffffffffffff1673ffffffffffffffffffffffffffffffffffffffff168152602001906001019080831161055f575b50505050509050919050565b60c881565b60006020528060005260406000206000915054906101000a900473ffffffffffffffffffffffffffffffffffffffff1681565b6101f481565b60006105ff85336111c6565b61063e576040517f08c379a0000000000000000000000000000000000000000000000000000000008152600401610635906119f3565b60405180910390fd5b6101f461ffff168263ffffffff16111561068d576040517f08c379a000000000000000000000000000000000000000000000000000000000815260040161068490611a5f565b60405180910390fd5b60c863ffffffff168461ffff1611156106db576040517f08c379a00000000000000000000000000000000000000000000000000000000081526004016106d290611acb565b60405180910390fd5b6000424433600260008a67ffffffffffffffff168152602001908152602001600020546040516020016107119493929190611b54565b6040516020818303038152906040528051906020012060001c9050600260008767ffffffffffffffff168152602001908152602001600020600081548092919061075a90611bd1565b919050555060405161076b90611c4a565b60405180910390208667ffffffffffffffff16887fe793bce6b7898aadb47535d2f438b59e3250ef6350f1340c829217476a4dcc4f846001436107ae9190611c5f565b4060001c8a8a8a6040516107c6959493929190611c93565b60405180910390a460008363ffffffff1667ffffffffffffffff8111156107f0576107ef6118fb565b5b60405190808252806020026020018201604052801561081e5781602001602082028036833780820191505090505b50905060005b8463ffffffff168163ffffffff16101561089a574244848360405160200161084f9493929190611d1c565b6040516020818303038152906040528051906020012060001c828263ffffffff168151811061088157610880611d6a565b5b6020026020010181815250508080600101915050610824565b5060003373ffffffffffffffffffffffffffffffffffffffff1683836040516024016108c7929190611e57565b6040516020818303038152906040527f1fe543e3000000000000000000000000000000000000000000000000000000007bffffffffffffffffffffffffffffffffffffffffffffffffffffffff19166020820180517bffffffffffffffffffffffffffffffffffffffffffffffffffffffff83818316178352505050506040516109519190611eed565b6000604051808303816000865af19150503d806000811461098e576040519150601f19603f3d011682016040523d82523d6000602084013e610993565b606091505b50509050827f7dffc5ae5ee4e2e4df1651cf6ad329a73cebdb728f37ea0187b9b17e036756e46001436109c69190611c5f565b4060001c6000846040516109dc93929190611f49565b60405180910390a282935050505095945050505050565b606481565b3373ffffffffffffffffffffffffffffffffffffffff166000808467ffffffffffffffff16815260200190815260200160002060009054906101000a900473ffffffffffffffffffffffffffffffffffffffff1673ffffffffffffffffffffffffffffffffffffffff1614610aa2576040517f08c379a0000000000000000000000000000000000000000000000000000000008152600401610a9990611987565b60405180910390fd5b6000600160008467ffffffffffffffff168152602001908152602001600020905060005b8180549050811015610b56578273ffffffffffffffffffffffffffffffffffffffff16828281548110610afc57610afb611d6a565b5b9060005260206000200160009054906101000a900473ffffffffffffffffffffffffffffffffffffffff1673ffffffffffffffffffffffffffffffffffffffff1603610b49575050610c19565b8080600101915050610ac6565b50600160008467ffffffffffffffff168152602001908152602001600020829080600181540180825580915050600190039060005260206000200160009091909190916101000a81548173ffffffffffffffffffffffffffffffffffffffff021916908373ffffffffffffffffffffffffffffffffffffffff1602179055508267ffffffffffffffff167f43dc749a04ac8fb825cbd514f7c0e13f13bc6f2ee66043b76629d51776cff8e083604051610c0f91906116b3565b60405180910390a2505b5050565b50565b3373ffffffffffffffffffffffffffffffffffffffff166000808467ffffffffffffffff16815260200190815260200160002060009054906101000a900473ffffffffffffffffffffffffffffffffffffffff1673ffffffffffffffffffffffffffffffffffffffff1614610cca576040517f08c379a0000000000000000000000000000000000000000000000000000000008152600401610cc190611987565b60405180910390fd5b6000600160008467ffffffffffffffff168152602001908152602001600020905060005b8180549050811015610e6b578273ffffffffffffffffffffffffffffffffffffffff16828281548110610d2457610d23611d6a565b5b9060005260206000200160009054906101000a900473ffffffffffffffffffffffffffffffffffffffff1673ffffffffffffffffffffffffffffffffffffffff1603610e5e578160018380549050610d7c9190611c5f565b81548110610d8d57610d8c611d6a565b5b9060005260206000200160009054906101000a900473ffffffffffffffffffffffffffffffffffffffff16828281548110610dcb57610dca611d6a565b5b9060005260206000200160006101000a81548173ffffffffffffffffffffffffffffffffffffffff021916908373ffffffffffffffffffffffffffffffffffffffff16021790555081805480610e2457610e23611f80565b5b6001900381819060005260206000200160006101000a81549073ffffffffffffffffffffffffffffffffffffffff02191690559055610e6b565b8080600101915050610cee565b50505050565b6000803373ffffffffffffffffffffffffffffffffffffffff1642610e969190611faf565b9050336000808367ffffffffffffffff16815260200190815260200160002060006101000a81548173ffffffffffffffffffffffffffffffffffffffff021916908373ffffffffffffffffffffffffffffffffffffffff1602179055508067ffffffffffffffff167f464722b4166576d3dcbba877b999bc35cf911f4eaf434b7eba68fa113951d0bf33604051610f2d91906116b3565b60405180910390a28091505090565b600080600060606000600260008767ffffffffffffffff168152602001908152602001600020546000808867ffffffffffffffff16815260200190815260200160002060009054906101000a900473ffffffffffffffffffffffffffffffffffffffff16600160008967ffffffffffffffff1681526020019081526020016000208080548060200260200160405190810160405280929190818152602001828054801561103e57602002820191906000526020600020905b8160009054906101000a900473ffffffffffffffffffffffffffffffffffffffff1673ffffffffffffffffffffffffffffffffffffffff1681526020019060010190808311610ff4575b5050505050905093509350935093509193509193565b6001602052816000526040600020818154811061107057600080fd5b906000526020600020016000915091509054906101000a900473ffffffffffffffffffffffffffffffffffffffff1681565b3373ffffffffffffffffffffffffffffffffffffffff166000808467ffffffffffffffff16815260200190815260200160002060009054906101000a900473ffffffffffffffffffffffffffffffffffffffff1673ffffffffffffffffffffffffffffffffffffffff161461114c576040517f08c379a000000000000000000000000000000000000000000000000000000000815260040161114390611987565b60405180910390fd5b6000808367ffffffffffffffff16815260200190815260200160002060006101000a81549073ffffffffffffffffffffffffffffffffffffffff0219169055600160008367ffffffffffffffff16815260200190815260200160002060006111b4919061128c565b5050565b622625a081565b6000919050565b600080600160008567ffffffffffffffff168152602001908152602001600020905060005b818054905081101561127f578373ffffffffffffffffffffffffffffffffffffffff1682828154811061122157611220611d6a565b5b9060005260206000200160009054906101000a900473ffffffffffffffffffffffffffffffffffffffff1673ffffffffffffffffffffffffffffffffffffffff160361127257600192505050611286565b80806001019150506111eb565b5060009150505b92915050565b50805460008255906000526020600020908101906112aa91906112ad565b50565b5b808211156112c65760008160009055506001016112ae565b5090565b600061ffff82169050919050565b6112e1816112ca565b82525050565b600063ffffffff82169050919050565b611300816112e7565b82525050565b600081519050919050565b600082825260208201905092915050565b6000819050602082019050919050565b6000819050919050565b61134581611332565b82525050565b6000611357838361133c565b60208301905092915050565b6000602082019050919050565b600061137b82611306565b6113858185611311565b935061139083611322565b8060005b838110156113c15781516113a8888261134b565b97506113b383611363565b925050600181019050611394565b5085935050505092915050565b60006060820190506113e360008301866112d8565b6113f060208301856112f7565b81810360408301526114028184611370565b9050949350505050565b600080fd5b600067ffffffffffffffff82169050919050565b61142e81611411565b811461143957600080fd5b50565b60008135905061144b81611425565b92915050565b600073ffffffffffffffffffffffffffffffffffffffff82169050919050565b600061147c82611451565b9050919050565b61148c81611471565b811461149757600080fd5b50565b6000813590506114a981611483565b92915050565b600080604083850312156114c6576114c561140c565b5b60006114d48582860161143c565b92505060206114e58582860161149a565b9150509250929050565b6000819050919050565b611502816114ef565b811461150d57600080fd5b50565b60008135905061151f816114f9565b92915050565b60006020828403121561153b5761153a61140c565b5b600061154984828501611510565b91505092915050565b61155b816114ef565b82525050565b60006020820190506115766000830184611552565b92915050565b6000602082840312156115925761159161140c565b5b60006115a08482850161143c565b91505092915050565b600081519050919050565b600082825260208201905092915050565b6000819050602082019050919050565b6115de81611471565b82525050565b60006115f083836115d5565b60208301905092915050565b6000602082019050919050565b6000611614826115a9565b61161e81856115b4565b9350611629836115c5565b8060005b8381101561165a57815161164188826115e4565b975061164c836115fc565b92505060018101905061162d565b5085935050505092915050565b600060208201905081810360008301526116818184611609565b905092915050565b600060208201905061169e60008301846112f7565b92915050565b6116ad81611471565b82525050565b60006020820190506116c860008301846116a4565b92915050565b60006020820190506116e360008301846112d8565b92915050565b6116f281611332565b81146116fd57600080fd5b50565b60008135905061170f816116e9565b92915050565b61171e816112ca565b811461172957600080fd5b50565b60008135905061173b81611715565b92915050565b61174a816112e7565b811461175557600080fd5b50565b60008135905061176781611741565b92915050565b600080600080600060a086880312156117895761178861140c565b5b600061179788828901611700565b95505060206117a88882890161143c565b94505060406117b98882890161172c565b93505060606117ca88828901611758565b92505060806117db88828901611758565b9150509295509295909350565b6117f181611411565b82525050565b600060208201905061180c60008301846117e8565b92915050565b60006bffffffffffffffffffffffff82169050919050565b61183381611812565b82525050565b600060808201905061184e600083018761182a565b61185b60208301866117e8565b61186860408301856116a4565b818103606083015261187a8184611609565b905095945050505050565b6000806040838503121561189c5761189b61140c565b5b60006118aa85828601611510565b92505060206118bb85828601611510565b9150509250929050565b60008115159050919050565b6118da816118c5565b82525050565b60006020820190506118f560008301846118d1565b92915050565b7f4e487b7100000000000000000000000000000000000000000000000000000000600052604160045260246000fd5b600082825260208201905092915050565b7f496e76616c696420737562736372697074696f6e206f776e6572000000000000600082015250565b6000611971601a8361192a565b915061197c8261193b565b602082019050919050565b600060208201905081810360008301526119a081611964565b9050919050565b7f496e76616c696420636f6e73756d657200000000000000000000000000000000600082015250565b60006119dd60108361192a565b91506119e8826119a7565b602082019050919050565b60006020820190508181036000830152611a0c816119d0565b9050919050565b7f546f6f206d616e792072616e646f6d20776f7264732072657175657374656400600082015250565b6000611a49601f8361192a565b9150611a5482611a13565b602082019050919050565b60006020820190508181036000830152611a7881611a3c565b9050919050565b7f546f6f206d616e7920636f6e6669726d6174696f6e7300000000000000000000600082015250565b6000611ab560168361192a565b9150611ac082611a7f565b602082019050919050565b60006020820190508181036000830152611ae481611aa8565b9050919050565b6000819050919050565b611b06611b01826114ef565b611aeb565b82525050565b60008160601b9050919050565b6000611b2482611b0c565b9050919050565b6000611b3682611b19565b9050919050565b611b4e611b4982611471565b611b2b565b82525050565b6000611b608287611af5565b602082019150611b708286611af5565b602082019150611b808285611b3d565b601482019150611b908284611af5565b60208201915081905095945050505050565b7f4e487b7100000000000000000000000000000000000000000000000000000000600052601160045260246000fd5b6000611bdc826114ef565b91507fffffffffffffffffffffffffffffffffffffffffffffffffffffffffffffffff8203611c0e57611c0d611ba2565b5b600182019050919050565b600081905092915050565b50565b6000611c34600083611c19565b9150611c3f82611c24565b600082019050919050565b6000611c5582611c27565b9150819050919050565b6000611c6a826114ef565b9150611c75836114ef565b9250828203905081811115611c8d57611c8c611ba2565b5b92915050565b600060a082019050611ca86000830188611552565b611cb56020830187611552565b611cc260408301866112d8565b611ccf60608301856112f7565b611cdc60808301846112f7565b9695505050505050565b60008160e01b9050919050565b6000611cfe82611ce6565b9050919050565b611d16611d11826112e7565b611cf3565b82525050565b6000611d288287611af5565b602082019150611d388286611af5565b602082019150611d488285611af5565b602082019150611d588284611d05565b60048201915081905095945050505050565b7f4e487b7100000000000000000000000000000000000000000000000000000000600052603260045260246000fd5b600081519050919050565b600082825260208201905092915050565b6000819050602082019050919050565b611dce816114ef565b82525050565b6000611de08383611dc5565b60208301905092915050565b6000602082019050919050565b6000611e0482611d99565b611e0e8185611da4565b9350611e1983611db5565b8060005b83811015611e4a578151611e318882611dd4565b9750611e3c83611dec565b925050600181019050611e1d565b5085935050505092915050565b6000604082019050611e6c6000830185611552565b8181036020830152611e7e8184611df9565b90509392505050565b600081519050919050565b60005b83811015611eb0578082015181840152602081019050611e95565b60008484015250505050565b6000611ec782611e87565b611ed18185611c19565b9350611ee1818560208601611e92565b80840191505092915050565b6000611ef98284611ebc565b915081905092915050565b6000819050919050565b6000819050919050565b6000611f33611f2e611f2984611f04565b611f0e565b611812565b9050919050565b611f4381611f18565b82525050565b6000606082019050611f5e6000830186611552565b611f6b6020830185611f3a565b611f7860408301846118d1565b949350505050565b7f4e487b7100000000000000000000000000000000000000000000000000000000600052603160045260246000fd5b6000611fba826114ef565b9150611fc5836114ef565b9250828201905080821115611fdd57611fdc611ba2565b5b9291505056fea2646970667358221220366043c694ac9b0792fe7b52ce66a9ce89cb1a4da9c61dc36dd1cf55d29a827764736f6c634300081c0033",
  "linkReferences": {},
  "deployedLinkReferences": {}
}