{
  "_format": "hh-sol-artifact-1",
  "contractName": "MockAavePool",
  "sourceName": "contracts/MockAavePool.sol",
  "abi": [
    {
      "inputs": [
        {
          "internalType": "address",
          "name": "_aTokenAddress",
          "type": "address"
        }
      ],
      "stateMutability": "nonpayable",
      "type": "constructor"
    },
    {
      "inputs": [],
      "name": "aToken",
      "outputs": [
        {
          "internalType": "contract MockAToken",
          "name": "",
          "type": "address"
        }
      ],
      "stateMutability": "view",
      "type": "function"
    },
    {
      "inputs": [
        {
          "internalType": "address",
          "name": "",
          "type": "address"
        }
      ],
      "name": "suppliedAmounts",
      "outputs": [
        {
          "internalType": "uint256",
          "name": "",
          "type": "uint256"
        }
      ],
      "stateMutability": "view",
      "type": "function"
    },
    {
      "inputs": [
        {
          "internalType": "address",
          "name": "asset",
          "type": "address"
        },
        {
          "internalType": "uint256",
          "name": "amount",
          "type": "uint256"
        },
        {
          "internalType": "address",
          "name": "onBehalfOf",
          "type": "address"
        },
        {
          "internalType": "uint16",
          "name": "referralCode",
          "type": "uint16"
        }
      ],
      "name": "supply",
      "outputs": [],
      "stateMutability": "nonpayable",
      "type": "function"
    },
    {
      "inputs": [
        {
          "internalType": "address",
          "name": "asset",
          "type": "address"
        },
        {
          "internalType": "uint256",
          "name": "amount",
          "type": "uint256"
        },
        {
          "internalType": "address",
          "name": "to",
          "type": "address"
        }
      ],
      "name": "withdraw",
      "outputs": [
        {
          "internalType": "uint256",
          "name": "",
          "type": "uint256"
        }
      ],
      "stateMutability": "nonpayable",
      "type": "function"
    }
  ],
  "bytecode": "0x608060405234801561001057600080fd5b50604051610987380380610987833981810160405281019061003291906100db565b806000806101000a81548173ffffffffffffffffffffffffffffffffffffffff021916908373ffffffffffffffffffffffffffffffffffffffff16021790555050610108565b600080fd5b600073ffffffffffffffffffffffffffffffffffffffff82169050919050565b60006100a88261007d565b9050919050565b6100b88161009d565b81146100c357600080fd5b50565b6000815190506100d5816100af565b92915050565b6000602082840312156100f1576100f0610078565b5b60006100ff848285016100c6565b91505092915050565b610870806101176000396000f3fe608060405234801561001057600080fd5b506004361061004c5760003560e01c8063222ce77314610051578063617ba0371461008157806369328dec1461009d578063a0c1f15e146100cd575b600080fd5b61006b60048036038101906100669190610457565b6100eb565b604051610078919061049d565b60405180910390f35b61009b6004803603810190610096919061051e565b610103565b005b6100b760048036038101906100b29190610585565b61026d565b6040516100c4919061049d565b60405180910390f35b6100d56103d0565b6040516100e29190610637565b60405180910390f35b60016020528060005260406000206000915090505481565b8373ffffffffffffffffffffffffffffffffffffffff166323b872dd3330866040518463ffffffff1660e01b815260040161014093929190610661565b6020604051808303816000875af115801561015f573d6000803e3d6000fd5b505050506040513d601f19601f8201168201806040525081019061018391906106d0565b5082600160008473ffffffffffffffffffffffffffffffffffffffff1673ffffffffffffffffffffffffffffffffffffffff16815260200190815260200160002060008282546101d3919061072c565b9250508190555060008054906101000a900473ffffffffffffffffffffffffffffffffffffffff1673ffffffffffffffffffffffffffffffffffffffff166340c10f1983856040518363ffffffff1660e01b8152600401610235929190610760565b600060405180830381600087803b15801561024f57600080fd5b505af1158015610263573d6000803e3d6000fd5b5050505050505050565b600082600160003373ffffffffffffffffffffffffffffffffffffffff1673ffffffffffffffffffffffffffffffffffffffff1681526020019081526020016000205410156102f1576040517f08c379a00000000000000000000000000000000000000000000000000000000081526004016102e8906107e6565b60405180910390fd5b82600160003373ffffffffffffffffffffffffffffffffffffffff1673ffffffffffffffffffffffffffffffffffffffff16815260200190815260200160002060008282546103409190610806565b925050819055508373ffffffffffffffffffffffffffffffffffffffff1663a9059cbb83856040518363ffffffff1660e01b8152600401610382929190610760565b6020604051808303816000875af11580156103a1573d6000803e3d6000fd5b505050506040513d601f19601f820116820180604052508101906103c591906106d0565b508290509392505050565b60008054906101000a900473ffffffffffffffffffffffffffffffffffffffff1681565b600080fd5b600073ffffffffffffffffffffffffffffffffffffffff82169050919050565b6000610424826103f9565b9050919050565b61043481610419565b811461043f57600080fd5b50565b6000813590506104518161042b565b92915050565b60006020828403121561046d5761046c6103f4565b5b600061047b84828501610442565b91505092915050565b6000819050919050565b61049781610484565b82525050565b60006020820190506104b2600083018461048e565b92915050565b6104c181610484565b81146104cc57600080fd5b50565b6000813590506104de816104b8565b92915050565b600061ffff82169050919050565b6104fb816104e4565b811461050657600080fd5b50565b600081359050610518816104f2565b92915050565b60008060008060808587031215610538576105376103f4565b5b600061054687828801610442565b9450506020610557878288016104cf565b935050604061056887828801610442565b925050606061057987828801610509565b91505092959194509250565b60008060006060848603121561059e5761059d6103f4565b5b60006105ac86828701610442565b93505060206105bd868287016104cf565b92505060406105ce86828701610442565b9150509250925092565b6000819050919050565b60006105fd6105f86105f3846103f9565b6105d8565b6103f9565b9050919050565b600061060f826105e2565b9050919050565b600061062182610604565b9050919050565b61063181610616565b82525050565b600060208201905061064c6000830184610628565b92915050565b61065b81610419565b82525050565b60006060820190506106766000830186610652565b6106836020830185610652565b610690604083018461048e565b949350505050565b60008115159050919050565b6106ad81610698565b81146106b857600080fd5b50565b6000815190506106ca816106a4565b92915050565b6000602082840312156106e6576106e56103f4565b5b60006106f4848285016106bb565b91505092915050565b7f4e487b7100000000000000000000000000000000000000000000000000000000600052601160045260246000fd5b600061073782610484565b915061074283610484565b925082820190508082111561075a576107596106fd565b5b92915050565b60006040820190506107756000830185610652565b610782602083018461048e565b9392505050565b600082825260208201905092915050565b7f496e73756666696369656e742062616c616e6365000000000000000000000000600082015250565b60006107d0601483610789565b91506107db8261079a565b602082019050919050565b600060208201905081810360008301526107ff816107c3565b9050919050565b600061081182610484565b915061081c83610484565b9250828203905081811115610834576108336106fd565b5b9291505056fea2646970667358221220ad2a6f15546f8459fe1a95f6f4b961d4c2e5456aa2d6ca95d836ecc56339fd7f64736f6c634300081c0033",
  "linkReferences": {},
  "deployedLinkReferences": {}
}