{
  "_format": "hh-sol-artifact-1",
  "contractName": "MockAavePool",
  "sourceName": "contracts/MockAavePool.sol",
  "abi": [
    {
      "inputs": [
        {
          "internalType": "address",
          "name": "_aTokenAddress",
          "type": "address"
        }
      ],
      "stateMutability": "nonpayable",
      "type": "constructor"
    },
    {
      "anonymous": false,
      "inputs": [
        {
          "indexed": true,
          "internalType": "address",
          "name": "beneficiary",
          "type": "address"
        },
        {
          "indexed": false,
          "internalType": "uint256",
          "name": "amount",
          "type": "uint256"
        },
        {
          "indexed": false,
          "internalType": "uint256",
          "name": "timeElapsed",
          "type": "uint256"
        }
      ],
      "name": "InterestAccrued",
      "type": "event"
    },
    {
      "inputs": [],
      "name": "BASIS_POINTS",
      "outputs": [
        {
          "internalType": "uint256",
          "name": "",
          "type": "uint256"
        }
      ],
      "stateMutability": "view",
      "type": "function"
    },
    {
      "inputs": [],
      "name": "INTEREST_RATE",
      "outputs": [
        {
          "internalType": "uint256",
          "name": "",
          "type": "uint256"
        }
      ],
      "stateMutability": "view",
      "type": "function"
    },
    {
      "inputs": [],
      "name": "SECONDS_PER_YEAR",
      "outputs": [
        {
          "internalType": "uint256",
          "name": "",
          "type": "uint256"
        }
      ],
      "stateMutability": "view",
      "type": "function"
    },
    {
      "inputs": [],
      "name": "aToken",
      "outputs": [
        {
          "internalType": "contract MockAToken",
          "name": "",
          "type": "address"
        }
      ],
      "stateMutability": "view",
      "type": "function"
    },
    {
      "inputs": [
        {
          "internalType": "address",
          "name": "beneficiary",
          "type": "address"
        }
      ],
      "name": "accrueInterestTo",
      "outputs": [],
      "stateMutability": "nonpayable",
      "type": "function"
    },
    {
      "inputs": [],
      "name": "getInterestRate",
      "outputs": [
        {
          "internalType": "uint256",
          "name": "",
          "type": "uint256"
        }
      ],
      "stateMutability": "pure",
      "type": "function"
    },
    {
      "inputs": [],
      "name": "getLastUpdateTime",
      "outputs": [
        {
          "internalType": "uint256",
          "name": "",
          "type": "uint256"
        }
      ],
      "stateMutability": "view",
      "type": "function"
    },
    {
      "inputs": [],
      "name": "getPendingInterest",
      "outputs": [
        {
          "internalType": "uint256",
          "name": "",
          "type": "uint256"
        }
      ],
      "stateMutability": "view",
      "type": "function"
    },
    {
      "inputs": [],
      "name": "getTotalSupplied",
      "outputs": [
        {
          "internalType": "uint256",
          "name": "",
          "type": "uint256"
        }
      ],
      "stateMutability": "view",
      "type": "function"
    },
    {
      "inputs": [],
      "name": "lastUpdateTimestamp",
      "outputs": [
        {
          "internalType": "uint256",
          "name": "",
          "type": "uint256"
        }
      ],
      "stateMutability": "view",
      "type": "function"
    },
    {
      "inputs": [
        {
          "internalType": "address",
          "name": "",
          "type": "address"
        }
      ],
      "name": "suppliedAmounts",
      "outputs": [
        {
          "internalType": "uint256",
          "name": "",
          "type": "uint256"
        }
      ],
      "stateMutability": "view",
      "type": "function"
    },
    {
      "inputs": [
        {
          "internalType": "address",
          "name": "asset",
          "type": "address"
        },
        {
          "internalType": "uint256",
          "name": "amount",
          "type": "uint256"
        },
        {
          "internalType": "address",
          "name": "onBehalfOf",
          "type": "address"
        },
        {
          "internalType": "uint16",
          "name": "referralCode",
          "type": "uint16"
        }
      ],
      "name": "supply",
      "outputs": [],
      "stateMutability": "nonpayable",
      "type": "function"
    },
    {
      "inputs": [],
      "name": "totalSupplied",
      "outputs": [
        {
          "internalType": "uint256",
          "name": "",
          "type": "uint256"
        }
      ],
      "stateMutability": "view",
      "type": "function"
    },
    {
      "inputs": [
        {
          "internalType": "address",
          "name": "asset",
          "type": "address"
        },
        {
          "internalType": "uint256",
          "name": "amount",
          "type": "uint256"
        },
        {
          "internalType": "address",
          "name": "to",
          "type": "address"
        }
      ],
      "name": "withdraw",
      "outputs": [
        {
          "internalType": "uint256",
          "name": "",
          "type": "uint256"
        }
      ],
      "stateMutability": "nonpayable",
      "type": "function"
    }
  ],
  "bytecode": "0x608060405234801561001057600080fd5b50604051610e5a380380610e5a833981810160405281019061003291906100e2565b806000806101000a81548173ffffffffffffffffffffffffffffffffffffffff021916908373ffffffffffffffffffffffffffffffffffffffff160217905550426002819055505061010f565b600080fd5b600073ffffffffffffffffffffffffffffffffffffffff82169050919050565b60006100af82610084565b9050919050565b6100bf816100a4565b81146100ca57600080fd5b50565b6000815190506100dc816100b6565b92915050565b6000602082840312156100f8576100f761007f565b5b6000610106848285016100cd565b91505092915050565b610d3c8061011e6000396000f3fe608060405234801561001057600080fd5b50600436106100ea5760003560e01c806369328dec1161008c578063b7f8832011610066578063b7f883201461023b578063d9de24d714610259578063e1f1c4a714610277578063e6a69ab814610295576100ea565b806369328dec146101d1578063a0c1f15e14610201578063b616cbe11461021f576100ea565b80635257b566116100c85780635257b5661461015b5780635b72a33a14610179578063617ba03714610197578063630fd0ac146101b3576100ea565b806314bcec9f146100ef578063222ce7731461010d5780635106df991461013d575b600080fd5b6100f76102b3565b604051610104919061080e565b60405180910390f35b6101276004803603810190610122919061088c565b6102b9565b604051610134919061080e565b60405180910390f35b6101456102d1565b604051610152919061080e565b60405180910390f35b610163610342565b604051610170919061080e565b60405180910390f35b61018161034c565b60405161018e919061080e565b60405180910390f35b6101b160048036038101906101ac919061091f565b610352565b005b6101bb6104d5565b6040516101c8919061080e565b60405180910390f35b6101eb60048036038101906101e69190610986565b6104db565b6040516101f8919061080e565b60405180910390f35b610209610657565b6040516102169190610a38565b60405180910390f35b6102396004803603810190610234919061088c565b61067b565b005b6102436107d3565b604051610250919061080e565b60405180910390f35b6102616107dd565b60405161026e919061080e565b60405180910390f35b61027f6107e7565b60405161028c919061080e565b60405180910390f35b61029d6107ed565b6040516102aa919061080e565b60405180910390f35b60025481565b60016020528060005260406000206000915090505481565b600080600254426102e29190610a82565b905060008114806102f557506000600354145b1561030457600091505061033f565b6301e133806127106103169190610ab6565b816101f46003546103279190610ab6565b6103319190610ab6565b61033b9190610b27565b9150505b90565b60006101f4905090565b6101f481565b8373ffffffffffffffffffffffffffffffffffffffff166323b872dd3330866040518463ffffffff1660e01b815260040161038f93929190610b67565b6020604051808303816000875af11580156103ae573d6000803e3d6000fd5b505050506040513d601f19601f820116820180604052508101906103d29190610bd6565b5082600160008473ffffffffffffffffffffffffffffffffffffffff1673ffffffffffffffffffffffffffffffffffffffff16815260200190815260200160002060008282546104229190610c03565b92505081905550826003600082825461043b9190610c03565b9250508190555060008054906101000a900473ffffffffffffffffffffffffffffffffffffffff1673ffffffffffffffffffffffffffffffffffffffff166340c10f1983856040518363ffffffff1660e01b815260040161049d929190610c37565b600060405180830381600087803b1580156104b757600080fd5b505af11580156104cb573d6000803e3d6000fd5b5050505050505050565b60035481565b600082600160003373ffffffffffffffffffffffffffffffffffffffff1673ffffffffffffffffffffffffffffffffffffffff16815260200190815260200160002054101561055f576040517f08c379a000000000000000000000000000000000000000000000000000000000815260040161055690610cbd565b60405180910390fd5b82600160003373ffffffffffffffffffffffffffffffffffffffff1673ffffffffffffffffffffffffffffffffffffffff16815260200190815260200160002060008282546105ae9190610a82565b9250508190555082600360008282546105c79190610a82565b925050819055508373ffffffffffffffffffffffffffffffffffffffff1663a9059cbb83856040518363ffffffff1660e01b8152600401610609929190610c37565b6020604051808303816000875af1158015610628573d6000803e3d6000fd5b505050506040513d601f19601f8201168201806040525081019061064c9190610bd6565b508290509392505050565b60008054906101000a900473ffffffffffffffffffffffffffffffffffffffff1681565b60006002544261068b9190610a82565b905060008111801561069f57506000600354115b156107cf5760006301e133806127106106b89190610ab6565b826101f46003546106c99190610ab6565b6106d39190610ab6565b6106dd9190610b27565b905060008111156107c65760008054906101000a900473ffffffffffffffffffffffffffffffffffffffff1673ffffffffffffffffffffffffffffffffffffffff166340c10f1984836040518363ffffffff1660e01b8152600401610743929190610c37565b600060405180830381600087803b15801561075d57600080fd5b505af1158015610771573d6000803e3d6000fd5b505050508273ffffffffffffffffffffffffffffffffffffffff167f4557e05caeefc19fe1b4badbbd2996f86791aa6e830e224dc79c20725c38b9c182846040516107bd929190610cdd565b60405180910390a25b42600281905550505b5050565b6000600254905090565b6000600354905090565b61271081565b6301e1338081565b6000819050919050565b610808816107f5565b82525050565b600060208201905061082360008301846107ff565b92915050565b600080fd5b600073ffffffffffffffffffffffffffffffffffffffff82169050919050565b60006108598261082e565b9050919050565b6108698161084e565b811461087457600080fd5b50565b60008135905061088681610860565b92915050565b6000602082840312156108a2576108a1610829565b5b60006108b084828501610877565b91505092915050565b6108c2816107f5565b81146108cd57600080fd5b50565b6000813590506108df816108b9565b92915050565b600061ffff82169050919050565b6108fc816108e5565b811461090757600080fd5b50565b600081359050610919816108f3565b92915050565b6000806000806080858703121561093957610938610829565b5b600061094787828801610877565b9450506020610958878288016108d0565b935050604061096987828801610877565b925050606061097a8782880161090a565b91505092959194509250565b60008060006060848603121561099f5761099e610829565b5b60006109ad86828701610877565b93505060206109be868287016108d0565b92505060406109cf86828701610877565b9150509250925092565b6000819050919050565b60006109fe6109f96109f48461082e565b6109d9565b61082e565b9050919050565b6000610a10826109e3565b9050919050565b6000610a2282610a05565b9050919050565b610a3281610a17565b82525050565b6000602082019050610a4d6000830184610a29565b92915050565b7f4e487b7100000000000000000000000000000000000000000000000000000000600052601160045260246000fd5b6000610a8d826107f5565b9150610a98836107f5565b9250828203905081811115610ab057610aaf610a53565b5b92915050565b6000610ac1826107f5565b9150610acc836107f5565b9250828202610ada816107f5565b91508282048414831517610af157610af0610a53565b5b5092915050565b7f4e487b7100000000000000000000000000000000000000000000000000000000600052601260045260246000fd5b6000610b32826107f5565b9150610b3d836107f5565b925082610b4d57610b4c610af8565b5b828204905092915050565b610b618161084e565b82525050565b6000606082019050610b7c6000830186610b58565b610b896020830185610b58565b610b9660408301846107ff565b949350505050565b60008115159050919050565b610bb381610b9e565b8114610bbe57600080fd5b50565b600081519050610bd081610baa565b92915050565b600060208284031215610bec57610beb610829565b5b6000610bfa84828501610bc1565b91505092915050565b6000610c0e826107f5565b9150610c19836107f5565b9250828201905080821115610c3157610c30610a53565b5b92915050565b6000604082019050610c4c6000830185610b58565b610c5960208301846107ff565b9392505050565b600082825260208201905092915050565b7f496e73756666696369656e742062616c616e6365000000000000000000000000600082015250565b6000610ca7601483610c60565b9150610cb282610c71565b602082019050919050565b60006020820190508181036000830152610cd681610c9a565b9050919050565b6000604082019050610cf260008301856107ff565b610cff60208301846107ff565b939250505056fea2646970667358221220d2f7d678d8725a389d3d2e3d79bf5d98619644ec159ba242ef6f49b99eabaaa264736f6c634300081c0033",
  "linkReferences": {},
  "deployedLinkReferences": {}
}