{
  "_format": "hh-sol-artifact-1",
  "contractName": "NoLossLottery",
  "sourceName": "contracts/NoLossLottery.sol",
  "abi": [
    {
      "inputs": [
        {
          "internalType": "address",
          "name": "_depositToken",
          "type": "address"
        },
        {
          "internalType": "address",
          "name": "_aavePool",
          "type": "address"
        },
        {
          "internalType": "address",
          "name": "_aTokenAddress",
          "type": "address"
        },
        {
          "internalType": "address",
          "name": "_vrfCoordinatorV2",
          "type": "address"
        },
        {
          "internalType": "bytes32",
          "name": "_keyHash",
          "type": "bytes32"
        },
        {
          "internalType": "uint64",
          "name": "_subscriptionId",
          "type": "uint64"
        },
        {
          "internalType": "uint32",
          "name": "_callbackGasLimit",
          "type": "uint32"
        }
      ],
      "stateMutability": "nonpayable",
      "type": "constructor"
    },
    {
      "inputs": [
        {
          "internalType": "address",
          "name": "have",
          "type": "address"
        },
        {
          "internalType": "address",
          "name": "want",
          "type": "address"
        }
      ],
      "name": "OnlyCoordinatorCanFulfill",
      "type": "error"
    },
    {
      "anonymous": false,
      "inputs": [
        {
          "indexed": true,
          "internalType": "address",
          "name": "user",
          "type": "address"
        },
        {
          "indexed": false,
          "internalType": "uint256",
          "name": "amount",
          "type": "uint256"
        }
      ],
      "name": "Deposited",
      "type": "event"
    },
    {
      "anonymous": false,
      "inputs": [
        {
          "indexed": true,
          "internalType": "address",
          "name": "winner",
          "type": "address"
        },
        {
          "indexed": false,
          "internalType": "uint256",
          "name": "prize",
          "type": "uint256"
        },
        {
          "indexed": false,
          "internalType": "uint256",
          "name": "requestId",
          "type": "uint256"
        }
      ],
      "name": "WinnerPicked",
      "type": "event"
    },
    {
      "anonymous": false,
      "inputs": [
        {
          "indexed": true,
          "internalType": "uint256",
          "name": "requestId",
          "type": "uint256"
        }
      ],
      "name": "WinnerRequested",
      "type": "event"
    },
    {
      "anonymous": false,
      "inputs": [
        {
          "indexed": true,
          "internalType": "address",
          "name": "user",
          "type": "address"
        },
        {
          "indexed": false,
          "internalType": "uint256",
          "name": "amount",
          "type": "uint256"
        }
      ],
      "name": "Withdrawn",
      "type": "event"
    },
    {
      "inputs": [],
      "name": "aTokenAddress",
      "outputs": [
        {
          "internalType": "address",
          "name": "",
          "type": "address"
        }
      ],
      "stateMutability": "view",
      "type": "function"
    },
    {
      "inputs": [],
      "name": "aavePool",
      "outputs": [
        {
          "internalType": "contract IPool",
          "name": "",
          "type": "address"
        }
      ],
      "stateMutability": "view",
      "type": "function"
    },
    {
      "inputs": [],
      "name": "calculatePrize",
      "outputs": [
        {
          "internalType": "uint256",
          "name": "prize",
          "type": "uint256"
        }
      ],
      "stateMutability": "view",
      "type": "function"
    },
    {
      "inputs": [
        {
          "internalType": "uint256",
          "name": "_amount",
          "type": "uint256"
        }
      ],
      "name": "deposit",
      "outputs": [],
      "stateMutability": "nonpayable",
      "type": "function"
    },
    {
      "inputs": [],
      "name": "depositToken",
      "outputs": [
        {
          "internalType": "contract IERC20",
          "name": "",
          "type": "address"
        }
      ],
      "stateMutability": "view",
      "type": "function"
    },
    {
      "inputs": [],
      "name": "getPlayerCount",
      "outputs": [
        {
          "internalType": "uint256",
          "name": "",
          "type": "uint256"
        }
      ],
      "stateMutability": "view",
      "type": "function"
    },
    {
      "inputs": [],
      "name": "getPlayers",
      "outputs": [
        {
          "internalType": "address[]",
          "name": "",
          "type": "address[]"
        }
      ],
      "stateMutability": "view",
      "type": "function"
    },
    {
      "inputs": [],
      "name": "getTimeRemaining",
      "outputs": [
        {
          "internalType": "uint256",
          "name": "",
          "type": "uint256"
        }
      ],
      "stateMutability": "view",
      "type": "function"
    },
    {
      "inputs": [
        {
          "internalType": "address",
          "name": "_user",
          "type": "address"
        }
      ],
      "name": "getUserBalance",
      "outputs": [
        {
          "internalType": "uint256",
          "name": "",
          "type": "uint256"
        }
      ],
      "stateMutability": "view",
      "type": "function"
    },
    {
      "inputs": [],
      "name": "hasLotteryEnded",
      "outputs": [
        {
          "internalType": "bool",
          "name": "",
          "type": "bool"
        }
      ],
      "stateMutability": "view",
      "type": "function"
    },
    {
      "inputs": [
        {
          "internalType": "address",
          "name": "",
          "type": "address"
        }
      ],
      "name": "isPlayer",
      "outputs": [
        {
          "internalType": "bool",
          "name": "",
          "type": "bool"
        }
      ],
      "stateMutability": "view",
      "type": "function"
    },
    {
      "inputs": [],
      "name": "lastWinner",
      "outputs": [
        {
          "internalType": "address",
          "name": "",
          "type": "address"
        }
      ],
      "stateMutability": "view",
      "type": "function"
    },
    {
      "inputs": [],
      "name": "lastWinningAmount",
      "outputs": [
        {
          "internalType": "uint256",
          "name": "",
          "type": "uint256"
        }
      ],
      "stateMutability": "view",
      "type": "function"
    },
    {
      "inputs": [],
      "name": "lotteryDuration",
      "outputs": [
        {
          "internalType": "uint256",
          "name": "",
          "type": "uint256"
        }
      ],
      "stateMutability": "view",
      "type": "function"
    },
    {
      "inputs": [],
      "name": "lotteryStartTime",
      "outputs": [
        {
          "internalType": "uint256",
          "name": "",
          "type": "uint256"
        }
      ],
      "stateMutability": "view",
      "type": "function"
    },
    {
      "inputs": [],
      "name": "owner",
      "outputs": [
        {
          "internalType": "address",
          "name": "",
          "type": "address"
        }
      ],
      "stateMutability": "view",
      "type": "function"
    },
    {
      "inputs": [],
      "name": "pickWinner",
      "outputs": [],
      "stateMutability": "nonpayable",
      "type": "function"
    },
    {
      "inputs": [
        {
          "internalType": "uint256",
          "name": "",
          "type": "uint256"
        }
      ],
      "name": "players",
      "outputs": [
        {
          "internalType": "address",
          "name": "",
          "type": "address"
        }
      ],
      "stateMutability": "view",
      "type": "function"
    },
    {
      "inputs": [
        {
          "internalType": "uint256",
          "name": "requestId",
          "type": "uint256"
        },
        {
          "internalType": "uint256[]",
          "name": "randomWords",
          "type": "uint256[]"
        }
      ],
      "name": "rawFulfillRandomWords",
      "outputs": [],
      "stateMutability": "nonpayable",
      "type": "function"
    },
    {
      "inputs": [],
      "name": "totalPrincipal",
      "outputs": [
        {
          "internalType": "uint256",
          "name": "",
          "type": "uint256"
        }
      ],
      "stateMutability": "view",
      "type": "function"
    },
    {
      "inputs": [
        {
          "internalType": "address",
          "name": "",
          "type": "address"
        }
      ],
      "name": "userDeposits",
      "outputs": [
        {
          "internalType": "uint256",
          "name": "",
          "type": "uint256"
        }
      ],
      "stateMutability": "view",
      "type": "function"
    },
    {
      "inputs": [
        {
          "internalType": "uint256",
          "name": "_amount",
          "type": "uint256"
        }
      ],
      "name": "withdraw",
      "outputs": [],
      "stateMutability": "nonpayable",
      "type": "function"
    }
  ],
  "bytecode": "0x61016060405262093a8060025534801561001857600080fd5b50604051612976380380612976833981810160405281019061003a91906104ac565b838073ffffffffffffffffffffffffffffffffffffffff1660808173ffffffffffffffffffffffffffffffffffffffff168152505050600073ffffffffffffffffffffffffffffffffffffffff168773ffffffffffffffffffffffffffffffffffffffff16036100df576040517f08c379a00000000000000000000000000000000000000000000000000000000081526004016100d6906105ab565b60405180910390fd5b600073ffffffffffffffffffffffffffffffffffffffff168673ffffffffffffffffffffffffffffffffffffffff160361014e576040517f08c379a000000000000000000000000000000000000000000000000000000000815260040161014590610617565b60405180910390fd5b600073ffffffffffffffffffffffffffffffffffffffff168573ffffffffffffffffffffffffffffffffffffffff16036101bd576040517f08c379a00000000000000000000000000000000000000000000000000000000081526004016101b490610683565b60405180910390fd5b600073ffffffffffffffffffffffffffffffffffffffff168473ffffffffffffffffffffffffffffffffffffffff160361022c576040517f08c379a0000000000000000000000000000000000000000000000000000000008152600401610223906106ef565b60405180910390fd5b8673ffffffffffffffffffffffffffffffffffffffff1660a08173ffffffffffffffffffffffffffffffffffffffff16815250508573ffffffffffffffffffffffffffffffffffffffff1660c08173ffffffffffffffffffffffffffffffffffffffff1681525050846000806101000a81548173ffffffffffffffffffffffffffffffffffffffff021916908373ffffffffffffffffffffffffffffffffffffffff1602179055508373ffffffffffffffffffffffffffffffffffffffff1660e08173ffffffffffffffffffffffffffffffffffffffff16815250508261010081815250508167ffffffffffffffff166101208167ffffffffffffffff16815250508063ffffffff166101408163ffffffff168152505033600960006101000a81548173ffffffffffffffffffffffffffffffffffffffff021916908373ffffffffffffffffffffffffffffffffffffffff160217905550426003819055505050505050505061070f565b600080fd5b600073ffffffffffffffffffffffffffffffffffffffff82169050919050565b60006103c78261039c565b9050919050565b6103d7816103bc565b81146103e257600080fd5b50565b6000815190506103f4816103ce565b92915050565b6000819050919050565b61040d816103fa565b811461041857600080fd5b50565b60008151905061042a81610404565b92915050565b600067ffffffffffffffff82169050919050565b61044d81610430565b811461045857600080fd5b50565b60008151905061046a81610444565b92915050565b600063ffffffff82169050919050565b61048981610470565b811461049457600080fd5b50565b6000815190506104a681610480565b92915050565b600080600080600080600060e0888a0312156104cb576104ca610397565b5b60006104d98a828b016103e5565b97505060206104ea8a828b016103e5565b96505060406104fb8a828b016103e5565b955050606061050c8a828b016103e5565b945050608061051d8a828b0161041b565b93505060a061052e8a828b0161045b565b92505060c061053f8a828b01610497565b91505092959891949750929550565b600082825260208201905092915050565b7f496e76616c6964206465706f73697420746f6b656e2061646472657373000000600082015250565b6000610595601d8361054e565b91506105a08261055f565b602082019050919050565b600060208201905081810360008301526105c481610588565b9050919050565b7f496e76616c6964204161766520706f6f6c206164647265737300000000000000600082015250565b600061060160198361054e565b915061060c826105cb565b602082019050919050565b60006020820190508181036000830152610630816105f4565b9050919050565b7f496e76616c69642061546f6b656e206164647265737300000000000000000000600082015250565b600061066d60168361054e565b915061067882610637565b602082019050919050565b6000602082019050818103600083015261069c81610660565b9050919050565b7f496e76616c69642056524620436f6f7264696e61746f72206164647265737300600082015250565b60006106d9601f8361054e565b91506106e4826106a3565b602082019050919050565b60006020820190508181036000830152610708816106cc565b9050919050565b60805160a05160c05160e0516101005161012051610140516121b26107c46000396000610a7e01526000610a5b01526000610a3a015260006109fe0152600081816105ea0152818161097101528181610cb101528181610e3901528181610efa0152611342015260008181610626015281816106ac01528181610d1e01528181610dfd01528181610f36015281816111860152818161137e0152611403015260008181610443015261049701526121b26000f3fe608060405234801561001057600080fd5b50600436106101425760003560e01c80638dedd3cc116100b8578063c89039c51161007c578063c89039c514610343578063dac6270d14610361578063dcfc0ced1461037f578063e2946a381461039d578063f71d96cb146103bb578063fe188184146103eb57610142565b80638dedd3cc146102af578063a03e4bc3146102cd578063a36b6aea146102eb578063b6b55f2514610309578063c2e522061461032557610142565b80632e1a7d4d1161010a5780632e1a7d4d146101ff578063477348921461021b5780634b1533b21461024b5780635d495aea146102695780638b5b9ccc146102735780638da5cb5b1461029157610142565b806309c95e10146101475780630ba36dcd146101775780631fe543e3146101a7578063214701c5146101c35780632d97902f146101e1575b600080fd5b610161600480360381019061015c91906115f7565b610409565b60405161016e919061163f565b60405180910390f35b610191600480360381019061018c91906115f7565b610429565b60405161019e9190611673565b60405180910390f35b6101c160048036038101906101bc9190611813565b610441565b005b6101cb610501565b6040516101d8919061163f565b60405180910390f35b6101e961051b565b6040516101f69190611673565b60405180910390f35b6102196004803603810190610214919061186f565b610521565b005b610235600480360381019061023091906115f7565b610848565b6040516102429190611673565b60405180910390f35b610253610891565b6040516102609190611673565b60405180910390f35b610271610897565b005b61027b610b34565b604051610288919061195a565b60405180910390f35b610299610bc2565b6040516102a6919061198b565b60405180910390f35b6102b7610be8565b6040516102c49190611673565b60405180910390f35b6102d5610caf565b6040516102e29190611a05565b60405180910390f35b6102f3610cd3565b6040516103009190611673565b60405180910390f35b610323600480360381019061031e919061186f565b610cd9565b005b61032d611177565b60405161033a9190611673565b60405180910390f35b61034b611184565b6040516103589190611a41565b60405180910390f35b6103696111a8565b6040516103769190611673565b60405180910390f35b6103876111e1565b604051610394919061198b565b60405180910390f35b6103a5611205565b6040516103b29190611673565b60405180910390f35b6103d560048036038101906103d0919061186f565b61120b565b6040516103e2919061198b565b60405180910390f35b6103f361124a565b604051610400919061198b565b60405180910390f35b60066020528060005260406000206000915054906101000a900460ff1681565b60076020528060005260406000206000915090505481565b7f000000000000000000000000000000000000000000000000000000000000000073ffffffffffffffffffffffffffffffffffffffff163373ffffffffffffffffffffffffffffffffffffffff16146104f357337f00000000000000000000000000000000000000000000000000000000000000006040517f1cf993f40000000000000000000000000000000000000000000000000000000081526004016104ea929190611a5c565b60405180910390fd5b6104fd8282611270565b5050565b60006002546003546105139190611ab4565b421015905090565b60025481565b60008111610564576040517f08c379a000000000000000000000000000000000000000000000000000000000815260040161055b90611b45565b60405180910390fd5b80600760003373ffffffffffffffffffffffffffffffffffffffff1673ffffffffffffffffffffffffffffffffffffffff1681526020019081526020016000205410156105e6576040517f08c379a00000000000000000000000000000000000000000000000000000000081526004016105dd90611bb1565b60405180910390fd5b60007f000000000000000000000000000000000000000000000000000000000000000073ffffffffffffffffffffffffffffffffffffffff166369328dec7f000000000000000000000000000000000000000000000000000000000000000084306040518463ffffffff1660e01b815260040161066593929190611bd1565b6020604051808303816000875af1158015610684573d6000803e3d6000fd5b505050506040513d601f19601f820116820180604052508101906106a89190611c1d565b90507f000000000000000000000000000000000000000000000000000000000000000073ffffffffffffffffffffffffffffffffffffffff1663a9059cbb33836040518363ffffffff1660e01b8152600401610705929190611c4a565b6020604051808303816000875af1158015610724573d6000803e3d6000fd5b505050506040513d601f19601f820116820180604052508101906107489190611c9f565b610787576040517f08c379a000000000000000000000000000000000000000000000000000000000815260040161077e90611d18565b60405180910390fd5b81600760003373ffffffffffffffffffffffffffffffffffffffff1673ffffffffffffffffffffffffffffffffffffffff16815260200190815260200160002060008282546107d69190611d38565b9250508190555081600860008282546107ef9190611d38565b925050819055503373ffffffffffffffffffffffffffffffffffffffff167f7084f5476618d8e60b11ef0d7d3f06914655adb8793e28ff7f018d4c76d505d58260405161083c9190611673565b60405180910390a25050565b6000600760008373ffffffffffffffffffffffffffffffffffffffff1673ffffffffffffffffffffffffffffffffffffffff168152602001908152602001600020549050919050565b60085481565b600960009054906101000a900473ffffffffffffffffffffffffffffffffffffffff1673ffffffffffffffffffffffffffffffffffffffff163373ffffffffffffffffffffffffffffffffffffffff1614610927576040517f08c379a000000000000000000000000000000000000000000000000000000000815260040161091e90611dde565b60405180910390fd5b60006001805490501161096f576040517f08c379a000000000000000000000000000000000000000000000000000000000815260040161096690611e4a565b60405180910390fd5b7f000000000000000000000000000000000000000000000000000000000000000073ffffffffffffffffffffffffffffffffffffffff1663b616cbe1306040518263ffffffff1660e01b81526004016109c8919061198b565b600060405180830381600087803b1580156109e257600080fd5b505af11580156109f6573d6000803e3d6000fd5b5050505060007f000000000000000000000000000000000000000000000000000000000000000073ffffffffffffffffffffffffffffffffffffffff16635d3b1d307f00000000000000000000000000000000000000000000000000000000000000007f000000000000000000000000000000000000000000000000000000000000000060037f000000000000000000000000000000000000000000000000000000000000000060016040518663ffffffff1660e01b8152600401610abf959493929190611ee2565b6020604051808303816000875af1158015610ade573d6000803e3d6000fd5b505050506040513d601f19601f82011682018060405250810190610b029190611c1d565b9050807f4c01f12e9bd0974ebab4e7627b9d3455845461e6259a0c7a436d77a2249d8fc760405160405180910390a250565b60606001805480602002602001604051908101604052809291908181526020018280548015610bb857602002820191906000526020600020905b8160009054906101000a900473ffffffffffffffffffffffffffffffffffffffff1673ffffffffffffffffffffffffffffffffffffffff1681526020019060010190808311610b6e575b5050505050905090565b600960009054906101000a900473ffffffffffffffffffffffffffffffffffffffff1681565b60008060008054906101000a900473ffffffffffffffffffffffffffffffffffffffff1673ffffffffffffffffffffffffffffffffffffffff166370a08231306040518263ffffffff1660e01b8152600401610c44919061198b565b602060405180830381865afa158015610c61573d6000803e3d6000fd5b505050506040513d601f19601f82011682018060405250810190610c859190611c1d565b9050600854811115610ca65760085481610c9f9190611d38565b9150610cab565b600091505b5090565b7f000000000000000000000000000000000000000000000000000000000000000081565b60035481565b60008111610d1c576040517f08c379a0000000000000000000000000000000000000000000000000000000008152600401610d1390611b45565b60405180910390fd5b7f000000000000000000000000000000000000000000000000000000000000000073ffffffffffffffffffffffffffffffffffffffff166323b872dd3330846040518463ffffffff1660e01b8152600401610d7993929190611f35565b6020604051808303816000875af1158015610d98573d6000803e3d6000fd5b505050506040513d601f19601f82011682018060405250810190610dbc9190611c9f565b610dfb576040517f08c379a0000000000000000000000000000000000000000000000000000000008152600401610df290611d18565b60405180910390fd5b7f000000000000000000000000000000000000000000000000000000000000000073ffffffffffffffffffffffffffffffffffffffff1663095ea7b37f0000000000000000000000000000000000000000000000000000000000000000836040518363ffffffff1660e01b8152600401610e76929190611c4a565b6020604051808303816000875af1158015610e95573d6000803e3d6000fd5b505050506040513d601f19601f82011682018060405250810190610eb99190611c9f565b610ef8576040517f08c379a0000000000000000000000000000000000000000000000000000000008152600401610eef90611fb8565b60405180910390fd5b7f000000000000000000000000000000000000000000000000000000000000000073ffffffffffffffffffffffffffffffffffffffff1663617ba0377f0000000000000000000000000000000000000000000000000000000000000000833060006040518563ffffffff1660e01b8152600401610f789493929190612013565b600060405180830381600087803b158015610f9257600080fd5b505af1158015610fa6573d6000803e3d6000fd5b50505050600660003373ffffffffffffffffffffffffffffffffffffffff1673ffffffffffffffffffffffffffffffffffffffff16815260200190815260200160002060009054906101000a900460ff166110b7576001600660003373ffffffffffffffffffffffffffffffffffffffff1673ffffffffffffffffffffffffffffffffffffffff16815260200190815260200160002060006101000a81548160ff0219169083151502179055506001339080600181540180825580915050600190039060005260206000200160009091909190916101000a81548173ffffffffffffffffffffffffffffffffffffffff021916908373ffffffffffffffffffffffffffffffffffffffff1602179055505b80600760003373ffffffffffffffffffffffffffffffffffffffff1673ffffffffffffffffffffffffffffffffffffffff16815260200190815260200160002060008282546111069190611ab4565b92505081905550806008600082825461111f9190611ab4565b925050819055503373ffffffffffffffffffffffffffffffffffffffff167f2da466a7b24304f47e87fa2e1e5a81b9831ce54fec19055ce277ca2f39ba42c48260405161116c9190611673565b60405180910390a250565b6000600180549050905090565b7f000000000000000000000000000000000000000000000000000000000000000081565b6000806002546003546111bb9190611ab4565b90508042106111ce5760009150506111de565b42816111da9190611d38565b9150505b90565b60008054906101000a900473ffffffffffffffffffffffffffffffffffffffff1681565b60055481565b6001818154811061121b57600080fd5b906000526020600020016000915054906101000a900473ffffffffffffffffffffffffffffffffffffffff1681565b600460009054906101000a900473ffffffffffffffffffffffffffffffffffffffff1681565b6000600180549050116112b8576040517f08c379a00000000000000000000000000000000000000000000000000000000081526004016112af90611e4a565b60405180910390fd5b6000600180549050826000815181106112d4576112d3612058565b5b60200260200101516112e691906120b6565b90506000600182815481106112fe576112fd612058565b5b9060005260206000200160009054906101000a900473ffffffffffffffffffffffffffffffffffffffff1690506000611335610be8565b905060008111156114df577f000000000000000000000000000000000000000000000000000000000000000073ffffffffffffffffffffffffffffffffffffffff166369328dec7f000000000000000000000000000000000000000000000000000000000000000083306040518463ffffffff1660e01b81526004016113bd93929190611bd1565b6020604051808303816000875af11580156113dc573d6000803e3d6000fd5b505050506040513d601f19601f820116820180604052508101906114009190611c1d565b507f000000000000000000000000000000000000000000000000000000000000000073ffffffffffffffffffffffffffffffffffffffff1663a9059cbb83836040518363ffffffff1660e01b815260040161145c929190611c4a565b6020604051808303816000875af115801561147b573d6000803e3d6000fd5b505050506040513d601f19601f8201168201806040525081019061149f9190611c9f565b6114de576040517f08c379a00000000000000000000000000000000000000000000000000000000081526004016114d590612133565b60405180910390fd5b5b81600460006101000a81548173ffffffffffffffffffffffffffffffffffffffff021916908373ffffffffffffffffffffffffffffffffffffffff16021790555080600581905550426003819055508173ffffffffffffffffffffffffffffffffffffffff167f7e57d825a2478cc8123a008d7d1e20c0f6e8cbca89a7bc100c9b05ecb3698deb8287604051611576929190612153565b60405180910390a25050505050565b6000604051905090565b600080fd5b600080fd5b600073ffffffffffffffffffffffffffffffffffffffff82169050919050565b60006115c482611599565b9050919050565b6115d4816115b9565b81146115df57600080fd5b50565b6000813590506115f1816115cb565b92915050565b60006020828403121561160d5761160c61158f565b5b600061161b848285016115e2565b91505092915050565b60008115159050919050565b61163981611624565b82525050565b60006020820190506116546000830184611630565b92915050565b6000819050919050565b61166d8161165a565b82525050565b60006020820190506116886000830184611664565b92915050565b6116978161165a565b81146116a257600080fd5b50565b6000813590506116b48161168e565b92915050565b600080fd5b6000601f19601f8301169050919050565b7f4e487b7100000000000000000000000000000000000000000000000000000000600052604160045260246000fd5b611708826116bf565b810181811067ffffffffffffffff82111715611727576117266116d0565b5b80604052505050565b600061173a611585565b905061174682826116ff565b919050565b600067ffffffffffffffff821115611766576117656116d0565b5b602082029050602081019050919050565b600080fd5b600061178f61178a8461174b565b611730565b905080838252602082019050602084028301858111156117b2576117b1611777565b5b835b818110156117db57806117c788826116a5565b8452602084019350506020810190506117b4565b5050509392505050565b600082601f8301126117fa576117f96116ba565b5b813561180a84826020860161177c565b91505092915050565b6000806040838503121561182a5761182961158f565b5b6000611838858286016116a5565b925050602083013567ffffffffffffffff81111561185957611858611594565b5b611865858286016117e5565b9150509250929050565b6000602082840312156118855761188461158f565b5b6000611893848285016116a5565b91505092915050565b600081519050919050565b600082825260208201905092915050565b6000819050602082019050919050565b6118d1816115b9565b82525050565b60006118e383836118c8565b60208301905092915050565b6000602082019050919050565b60006119078261189c565b61191181856118a7565b935061191c836118b8565b8060005b8381101561194d57815161193488826118d7565b975061193f836118ef565b925050600181019050611920565b5085935050505092915050565b6000602082019050818103600083015261197481846118fc565b905092915050565b611985816115b9565b82525050565b60006020820190506119a0600083018461197c565b92915050565b6000819050919050565b60006119cb6119c66119c184611599565b6119a6565b611599565b9050919050565b60006119dd826119b0565b9050919050565b60006119ef826119d2565b9050919050565b6119ff816119e4565b82525050565b6000602082019050611a1a60008301846119f6565b92915050565b6000611a2b826119d2565b9050919050565b611a3b81611a20565b82525050565b6000602082019050611a566000830184611a32565b92915050565b6000604082019050611a71600083018561197c565b611a7e602083018461197c565b9392505050565b7f4e487b7100000000000000000000000000000000000000000000000000000000600052601160045260246000fd5b6000611abf8261165a565b9150611aca8361165a565b9250828201905080821115611ae257611ae1611a85565b5b92915050565b600082825260208201905092915050565b7f416d6f756e74206d7573742062652067726561746572207468616e2030000000600082015250565b6000611b2f601d83611ae8565b9150611b3a82611af9565b602082019050919050565b60006020820190508181036000830152611b5e81611b22565b9050919050565b7f496e73756666696369656e742062616c616e6365000000000000000000000000600082015250565b6000611b9b601483611ae8565b9150611ba682611b65565b602082019050919050565b60006020820190508181036000830152611bca81611b8e565b9050919050565b6000606082019050611be6600083018661197c565b611bf36020830185611664565b611c00604083018461197c565b949350505050565b600081519050611c178161168e565b92915050565b600060208284031215611c3357611c3261158f565b5b6000611c4184828501611c08565b91505092915050565b6000604082019050611c5f600083018561197c565b611c6c6020830184611664565b9392505050565b611c7c81611624565b8114611c8757600080fd5b50565b600081519050611c9981611c73565b92915050565b600060208284031215611cb557611cb461158f565b5b6000611cc384828501611c8a565b91505092915050565b7f5472616e73666572206661696c65640000000000000000000000000000000000600082015250565b6000611d02600f83611ae8565b9150611d0d82611ccc565b602082019050919050565b60006020820190508181036000830152611d3181611cf5565b9050919050565b6000611d438261165a565b9150611d4e8361165a565b9250828203905081811115611d6657611d65611a85565b5b92915050565b7f4f6e6c79206f776e65722063616e2063616c6c20746869732066756e6374696f60008201527f6e00000000000000000000000000000000000000000000000000000000000000602082015250565b6000611dc8602183611ae8565b9150611dd382611d6c565b604082019050919050565b60006020820190508181036000830152611df781611dbb565b9050919050565b7f4e6f20706c617965727320696e20746865206c6f747465727900000000000000600082015250565b6000611e34601983611ae8565b9150611e3f82611dfe565b602082019050919050565b60006020820190508181036000830152611e6381611e27565b9050919050565b6000819050919050565b611e7d81611e6a565b82525050565b600067ffffffffffffffff82169050919050565b611ea081611e83565b82525050565b600061ffff82169050919050565b611ebd81611ea6565b82525050565b600063ffffffff82169050919050565b611edc81611ec3565b82525050565b600060a082019050611ef76000830188611e74565b611f046020830187611e97565b611f116040830186611eb4565b611f1e6060830185611ed3565b611f2b6080830184611ed3565b9695505050505050565b6000606082019050611f4a600083018661197c565b611f57602083018561197c565b611f646040830184611664565b949350505050565b7f417070726f76616c206661696c65640000000000000000000000000000000000600082015250565b6000611fa2600f83611ae8565b9150611fad82611f6c565b602082019050919050565b60006020820190508181036000830152611fd181611f95565b9050919050565b6000819050919050565b6000611ffd611ff8611ff384611fd8565b6119a6565b611ea6565b9050919050565b61200d81611fe2565b82525050565b6000608082019050612028600083018761197c565b6120356020830186611664565b612042604083018561197c565b61204f6060830184612004565b95945050505050565b7f4e487b7100000000000000000000000000000000000000000000000000000000600052603260045260246000fd5b7f4e487b7100000000000000000000000000000000000000000000000000000000600052601260045260246000fd5b60006120c18261165a565b91506120cc8361165a565b9250826120dc576120db612087565b5b828206905092915050565b7f5072697a65207472616e73666572206661696c65640000000000000000000000600082015250565b600061211d601583611ae8565b9150612128826120e7565b602082019050919050565b6000602082019050818103600083015261214c81612110565b9050919050565b60006040820190506121686000830185611664565b6121756020830184611664565b939250505056fea26469706673582212203bdeccd5aba6bb86cc5f7fa71ba422d3ab056e6cf11dfe1bb4aebb69da7036a364736f6c634300081c0033",
  "linkReferences": {},
  "deployedLinkReferences": {}
}