{
  "_format": "hh-sol-artifact-1",
  "contractName": "NoLossLottery",
  "sourceName": "contracts/NoLossLottery.sol",
  "abi": [
    {
      "inputs": [
        {
          "internalType": "address",
          "name": "_depositToken",
          "type": "address"
        },
        {
          "internalType": "address",
          "name": "_aavePool",
          "type": "address"
        },
        {
          "internalType": "address",
          "name": "_aTokenAddress",
          "type": "address"
        },
        {
          "internalType": "address",
          "name": "_vrfCoordinatorV2",
          "type": "address"
        },
        {
          "internalType": "bytes32",
          "name": "_keyHash",
          "type": "bytes32"
        },
        {
          "internalType": "uint64",
          "name": "_subscriptionId",
          "type": "uint64"
        },
        {
          "internalType": "uint32",
          "name": "_callbackGasLimit",
          "type": "uint32"
        }
      ],
      "stateMutability": "nonpayable",
      "type": "constructor"
    },
    {
      "inputs": [
        {
          "internalType": "address",
          "name": "have",
          "type": "address"
        },
        {
          "internalType": "address",
          "name": "want",
          "type": "address"
        }
      ],
      "name": "OnlyCoordinatorCanFulfill",
      "type": "error"
    },
    {
      "anonymous": false,
      "inputs": [
        {
          "indexed": true,
          "internalType": "address",
          "name": "user",
          "type": "address"
        },
        {
          "indexed": false,
          "internalType": "uint256",
          "name": "amount",
          "type": "uint256"
        }
      ],
      "name": "Deposited",
      "type": "event"
    },
    {
      "anonymous": false,
      "inputs": [
        {
          "indexed": true,
          "internalType": "address",
          "name": "winner",
          "type": "address"
        },
        {
          "indexed": false,
          "internalType": "uint256",
          "name": "prize",
          "type": "uint256"
        },
        {
          "indexed": false,
          "internalType": "uint256",
          "name": "requestId",
          "type": "uint256"
        }
      ],
      "name": "WinnerPicked",
      "type": "event"
    },
    {
      "anonymous": false,
      "inputs": [
        {
          "indexed": true,
          "internalType": "uint256",
          "name": "requestId",
          "type": "uint256"
        }
      ],
      "name": "WinnerRequested",
      "type": "event"
    },
    {
      "anonymous": false,
      "inputs": [
        {
          "indexed": true,
          "internalType": "address",
          "name": "user",
          "type": "address"
        },
        {
          "indexed": false,
          "internalType": "uint256",
          "name": "amount",
          "type": "uint256"
        }
      ],
      "name": "Withdrawn",
      "type": "event"
    },
    {
      "inputs": [],
      "name": "aTokenAddress",
      "outputs": [
        {
          "internalType": "address",
          "name": "",
          "type": "address"
        }
      ],
      "stateMutability": "view",
      "type": "function"
    },
    {
      "inputs": [],
      "name": "aavePool",
      "outputs": [
        {
          "internalType": "contract IPool",
          "name": "",
          "type": "address"
        }
      ],
      "stateMutability": "view",
      "type": "function"
    },
    {
      "inputs": [],
      "name": "calculatePrize",
      "outputs": [
        {
          "internalType": "uint256",
          "name": "prize",
          "type": "uint256"
        }
      ],
      "stateMutability": "view",
      "type": "function"
    },
    {
      "inputs": [
        {
          "internalType": "uint256",
          "name": "_amount",
          "type": "uint256"
        }
      ],
      "name": "deposit",
      "outputs": [],
      "stateMutability": "nonpayable",
      "type": "function"
    },
    {
      "inputs": [],
      "name": "depositToken",
      "outputs": [
        {
          "internalType": "contract IERC20",
          "name": "",
          "type": "address"
        }
      ],
      "stateMutability": "view",
      "type": "function"
    },
    {
      "inputs": [],
      "name": "getPlayerCount",
      "outputs": [
        {
          "internalType": "uint256",
          "name": "",
          "type": "uint256"
        }
      ],
      "stateMutability": "view",
      "type": "function"
    },
    {
      "inputs": [],
      "name": "getPlayers",
      "outputs": [
        {
          "internalType": "address[]",
          "name": "",
          "type": "address[]"
        }
      ],
      "stateMutability": "view",
      "type": "function"
    },
    {
      "inputs": [],
      "name": "getTimeRemaining",
      "outputs": [
        {
          "internalType": "uint256",
          "name": "",
          "type": "uint256"
        }
      ],
      "stateMutability": "view",
      "type": "function"
    },
    {
      "inputs": [
        {
          "internalType": "address",
          "name": "_user",
          "type": "address"
        }
      ],
      "name": "getUserBalance",
      "outputs": [
        {
          "internalType": "uint256",
          "name": "",
          "type": "uint256"
        }
      ],
      "stateMutability": "view",
      "type": "function"
    },
    {
      "inputs": [],
      "name": "hasLotteryEnded",
      "outputs": [
        {
          "internalType": "bool",
          "name": "",
          "type": "bool"
        }
      ],
      "stateMutability": "view",
      "type": "function"
    },
    {
      "inputs": [
        {
          "internalType": "address",
          "name": "",
          "type": "address"
        }
      ],
      "name": "isPlayer",
      "outputs": [
        {
          "internalType": "bool",
          "name": "",
          "type": "bool"
        }
      ],
      "stateMutability": "view",
      "type": "function"
    },
    {
      "inputs": [],
      "name": "lastWinner",
      "outputs": [
        {
          "internalType": "address",
          "name": "",
          "type": "address"
        }
      ],
      "stateMutability": "view",
      "type": "function"
    },
    {
      "inputs": [],
      "name": "lastWinningAmount",
      "outputs": [
        {
          "internalType": "uint256",
          "name": "",
          "type": "uint256"
        }
      ],
      "stateMutability": "view",
      "type": "function"
    },
    {
      "inputs": [],
      "name": "lotteryDuration",
      "outputs": [
        {
          "internalType": "uint256",
          "name": "",
          "type": "uint256"
        }
      ],
      "stateMutability": "view",
      "type": "function"
    },
    {
      "inputs": [],
      "name": "lotteryStartTime",
      "outputs": [
        {
          "internalType": "uint256",
          "name": "",
          "type": "uint256"
        }
      ],
      "stateMutability": "view",
      "type": "function"
    },
    {
      "inputs": [],
      "name": "owner",
      "outputs": [
        {
          "internalType": "address",
          "name": "",
          "type": "address"
        }
      ],
      "stateMutability": "view",
      "type": "function"
    },
    {
      "inputs": [],
      "name": "pickWinner",
      "outputs": [],
      "stateMutability": "nonpayable",
      "type": "function"
    },
    {
      "inputs": [
        {
          "internalType": "uint256",
          "name": "",
          "type": "uint256"
        }
      ],
      "name": "players",
      "outputs": [
        {
          "internalType": "address",
          "name": "",
          "type": "address"
        }
      ],
      "stateMutability": "view",
      "type": "function"
    },
    {
      "inputs": [
        {
          "internalType": "uint256",
          "name": "requestId",
          "type": "uint256"
        },
        {
          "internalType": "uint256[]",
          "name": "randomWords",
          "type": "uint256[]"
        }
      ],
      "name": "rawFulfillRandomWords",
      "outputs": [],
      "stateMutability": "nonpayable",
      "type": "function"
    },
    {
      "inputs": [],
      "name": "totalPrincipal",
      "outputs": [
        {
          "internalType": "uint256",
          "name": "",
          "type": "uint256"
        }
      ],
      "stateMutability": "view",
      "type": "function"
    },
    {
      "inputs": [
        {
          "internalType": "address",
          "name": "",
          "type": "address"
        }
      ],
      "name": "userDeposits",
      "outputs": [
        {
          "internalType": "uint256",
          "name": "",
          "type": "uint256"
        }
      ],
      "stateMutability": "view",
      "type": "function"
    },
    {
      "inputs": [
        {
          "internalType": "uint256",
          "name": "_amount",
          "type": "uint256"
        }
      ],
      "name": "withdraw",
      "outputs": [],
      "stateMutability": "nonpayable",
      "type": "function"
    }
  ],
  "bytecode": "0x61016060405262093a8060025534801561001857600080fd5b506040516129a23803806129a2833981810160405281019061003a91906104ac565b838073ffffffffffffffffffffffffffffffffffffffff1660808173ffffffffffffffffffffffffffffffffffffffff168152505050600073ffffffffffffffffffffffffffffffffffffffff168773ffffffffffffffffffffffffffffffffffffffff16036100df576040517f08c379a00000000000000000000000000000000000000000000000000000000081526004016100d6906105ab565b60405180910390fd5b600073ffffffffffffffffffffffffffffffffffffffff168673ffffffffffffffffffffffffffffffffffffffff160361014e576040517f08c379a000000000000000000000000000000000000000000000000000000000815260040161014590610617565b60405180910390fd5b600073ffffffffffffffffffffffffffffffffffffffff168573ffffffffffffffffffffffffffffffffffffffff16036101bd576040517f08c379a00000000000000000000000000000000000000000000000000000000081526004016101b490610683565b60405180910390fd5b600073ffffffffffffffffffffffffffffffffffffffff168473ffffffffffffffffffffffffffffffffffffffff160361022c576040517f08c379a0000000000000000000000000000000000000000000000000000000008152600401610223906106ef565b60405180910390fd5b8673ffffffffffffffffffffffffffffffffffffffff1660a08173ffffffffffffffffffffffffffffffffffffffff16815250508573ffffffffffffffffffffffffffffffffffffffff1660c08173ffffffffffffffffffffffffffffffffffffffff1681525050846000806101000a81548173ffffffffffffffffffffffffffffffffffffffff021916908373ffffffffffffffffffffffffffffffffffffffff1602179055508373ffffffffffffffffffffffffffffffffffffffff1660e08173ffffffffffffffffffffffffffffffffffffffff16815250508261010081815250508167ffffffffffffffff166101208167ffffffffffffffff16815250508063ffffffff166101408163ffffffff168152505033600960006101000a81548173ffffffffffffffffffffffffffffffffffffffff021916908373ffffffffffffffffffffffffffffffffffffffff160217905550426003819055505050505050505061070f565b600080fd5b600073ffffffffffffffffffffffffffffffffffffffff82169050919050565b60006103c78261039c565b9050919050565b6103d7816103bc565b81146103e257600080fd5b50565b6000815190506103f4816103ce565b92915050565b6000819050919050565b61040d816103fa565b811461041857600080fd5b50565b60008151905061042a81610404565b92915050565b600067ffffffffffffffff82169050919050565b61044d81610430565b811461045857600080fd5b50565b60008151905061046a81610444565b92915050565b600063ffffffff82169050919050565b61048981610470565b811461049457600080fd5b50565b6000815190506104a681610480565b92915050565b600080600080600080600060e0888a0312156104cb576104ca610397565b5b60006104d98a828b016103e5565b97505060206104ea8a828b016103e5565b96505060406104fb8a828b016103e5565b955050606061050c8a828b016103e5565b945050608061051d8a828b0161041b565b93505060a061052e8a828b0161045b565b92505060c061053f8a828b01610497565b91505092959891949750929550565b600082825260208201905092915050565b7f496e76616c6964206465706f73697420746f6b656e2061646472657373000000600082015250565b6000610595601d8361054e565b91506105a08261055f565b602082019050919050565b600060208201905081810360008301526105c481610588565b9050919050565b7f496e76616c6964204161766520706f6f6c206164647265737300000000000000600082015250565b600061060160198361054e565b915061060c826105cb565b602082019050919050565b60006020820190508181036000830152610630816105f4565b9050919050565b7f496e76616c69642061546f6b656e206164647265737300000000000000000000600082015250565b600061066d60168361054e565b915061067882610637565b602082019050919050565b6000602082019050818103600083015261069c81610660565b9050919050565b7f496e76616c69642056524620436f6f7264696e61746f72206164647265737300600082015250565b60006106d9601f8361054e565b91506106e4826106a3565b602082019050919050565b60006020820190508181036000830152610708816106cc565b9050919050565b60805160a05160c05160e0516101005161012051610140516121e56107bd6000396000610a4501526000610a2201526000610a01015260006109c50152600081816105ea01528181610c7801528181610e0001528181610ec10152611309015260008181610626015281816106ac01528181610ce501528181610dc401528181610efd0152818161114d0152818161134501526113ca015260008181610443015261049701526121e56000f3fe608060405234801561001057600080fd5b50600436106101425760003560e01c80638dedd3cc116100b8578063c89039c51161007c578063c89039c514610343578063dac6270d14610361578063dcfc0ced1461037f578063e2946a381461039d578063f71d96cb146103bb578063fe188184146103eb57610142565b80638dedd3cc146102af578063a03e4bc3146102cd578063a36b6aea146102eb578063b6b55f2514610309578063c2e522061461032557610142565b80632e1a7d4d1161010a5780632e1a7d4d146101ff578063477348921461021b5780634b1533b21461024b5780635d495aea146102695780638b5b9ccc146102735780638da5cb5b1461029157610142565b806309c95e10146101475780630ba36dcd146101775780631fe543e3146101a7578063214701c5146101c35780632d97902f146101e1575b600080fd5b610161600480360381019061015c91906115be565b610409565b60405161016e9190611606565b60405180910390f35b610191600480360381019061018c91906115be565b610429565b60405161019e919061163a565b60405180910390f35b6101c160048036038101906101bc91906117da565b610441565b005b6101cb610501565b6040516101d89190611606565b60405180910390f35b6101e961051b565b6040516101f6919061163a565b60405180910390f35b61021960048036038101906102149190611836565b610521565b005b610235600480360381019061023091906115be565b610848565b604051610242919061163a565b60405180910390f35b610253610891565b604051610260919061163a565b60405180910390f35b610271610897565b005b61027b610afb565b6040516102889190611921565b60405180910390f35b610299610b89565b6040516102a69190611952565b60405180910390f35b6102b7610baf565b6040516102c4919061163a565b60405180910390f35b6102d5610c76565b6040516102e291906119cc565b60405180910390f35b6102f3610c9a565b604051610300919061163a565b60405180910390f35b610323600480360381019061031e9190611836565b610ca0565b005b61032d61113e565b60405161033a919061163a565b60405180910390f35b61034b61114b565b6040516103589190611a08565b60405180910390f35b61036961116f565b604051610376919061163a565b60405180910390f35b6103876111a8565b6040516103949190611952565b60405180910390f35b6103a56111cc565b6040516103b2919061163a565b60405180910390f35b6103d560048036038101906103d09190611836565b6111d2565b6040516103e29190611952565b60405180910390f35b6103f3611211565b6040516104009190611952565b60405180910390f35b60066020528060005260406000206000915054906101000a900460ff1681565b60076020528060005260406000206000915090505481565b7f000000000000000000000000000000000000000000000000000000000000000073ffffffffffffffffffffffffffffffffffffffff163373ffffffffffffffffffffffffffffffffffffffff16146104f357337f00000000000000000000000000000000000000000000000000000000000000006040517f1cf993f40000000000000000000000000000000000000000000000000000000081526004016104ea929190611a23565b60405180910390fd5b6104fd8282611237565b5050565b60006002546003546105139190611a7b565b421015905090565b60025481565b60008111610564576040517f08c379a000000000000000000000000000000000000000000000000000000000815260040161055b90611b0c565b60405180910390fd5b80600760003373ffffffffffffffffffffffffffffffffffffffff1673ffffffffffffffffffffffffffffffffffffffff1681526020019081526020016000205410156105e6576040517f08c379a00000000000000000000000000000000000000000000000000000000081526004016105dd90611b78565b60405180910390fd5b60007f000000000000000000000000000000000000000000000000000000000000000073ffffffffffffffffffffffffffffffffffffffff166369328dec7f000000000000000000000000000000000000000000000000000000000000000084306040518463ffffffff1660e01b815260040161066593929190611b98565b6020604051808303816000875af1158015610684573d6000803e3d6000fd5b505050506040513d601f19601f820116820180604052508101906106a89190611be4565b90507f000000000000000000000000000000000000000000000000000000000000000073ffffffffffffffffffffffffffffffffffffffff1663a9059cbb33836040518363ffffffff1660e01b8152600401610705929190611c11565b6020604051808303816000875af1158015610724573d6000803e3d6000fd5b505050506040513d601f19601f820116820180604052508101906107489190611c66565b610787576040517f08c379a000000000000000000000000000000000000000000000000000000000815260040161077e90611cdf565b60405180910390fd5b81600760003373ffffffffffffffffffffffffffffffffffffffff1673ffffffffffffffffffffffffffffffffffffffff16815260200190815260200160002060008282546107d69190611cff565b9250508190555081600860008282546107ef9190611cff565b925050819055503373ffffffffffffffffffffffffffffffffffffffff167f7084f5476618d8e60b11ef0d7d3f06914655adb8793e28ff7f018d4c76d505d58260405161083c919061163a565b60405180910390a25050565b6000600760008373ffffffffffffffffffffffffffffffffffffffff1673ffffffffffffffffffffffffffffffffffffffff168152602001908152602001600020549050919050565b60085481565b600960009054906101000a900473ffffffffffffffffffffffffffffffffffffffff1673ffffffffffffffffffffffffffffffffffffffff163373ffffffffffffffffffffffffffffffffffffffff1614610927576040517f08c379a000000000000000000000000000000000000000000000000000000000815260040161091e90611da5565b60405180910390fd5b6002546003546109379190611a7b565b421015610979576040517f08c379a000000000000000000000000000000000000000000000000000000000815260040161097090611e11565b60405180910390fd5b6000600180549050116109c1576040517f08c379a00000000000000000000000000000000000000000000000000000000081526004016109b890611e7d565b60405180910390fd5b60007f000000000000000000000000000000000000000000000000000000000000000073ffffffffffffffffffffffffffffffffffffffff16635d3b1d307f00000000000000000000000000000000000000000000000000000000000000007f000000000000000000000000000000000000000000000000000000000000000060037f000000000000000000000000000000000000000000000000000000000000000060016040518663ffffffff1660e01b8152600401610a86959493929190611f15565b6020604051808303816000875af1158015610aa5573d6000803e3d6000fd5b505050506040513d601f19601f82011682018060405250810190610ac99190611be4565b9050807f4c01f12e9bd0974ebab4e7627b9d3455845461e6259a0c7a436d77a2249d8fc760405160405180910390a250565b60606001805480602002602001604051908101604052809291908181526020018280548015610b7f57602002820191906000526020600020905b8160009054906101000a900473ffffffffffffffffffffffffffffffffffffffff1673ffffffffffffffffffffffffffffffffffffffff1681526020019060010190808311610b35575b5050505050905090565b600960009054906101000a900473ffffffffffffffffffffffffffffffffffffffff1681565b60008060008054906101000a900473ffffffffffffffffffffffffffffffffffffffff1673ffffffffffffffffffffffffffffffffffffffff166370a08231306040518263ffffffff1660e01b8152600401610c0b9190611952565b602060405180830381865afa158015610c28573d6000803e3d6000fd5b505050506040513d601f19601f82011682018060405250810190610c4c9190611be4565b9050600854811115610c6d5760085481610c669190611cff565b9150610c72565b600091505b5090565b7f000000000000000000000000000000000000000000000000000000000000000081565b60035481565b60008111610ce3576040517f08c379a0000000000000000000000000000000000000000000000000000000008152600401610cda90611b0c565b60405180910390fd5b7f000000000000000000000000000000000000000000000000000000000000000073ffffffffffffffffffffffffffffffffffffffff166323b872dd3330846040518463ffffffff1660e01b8152600401610d4093929190611f68565b6020604051808303816000875af1158015610d5f573d6000803e3d6000fd5b505050506040513d601f19601f82011682018060405250810190610d839190611c66565b610dc2576040517f08c379a0000000000000000000000000000000000000000000000000000000008152600401610db990611cdf565b60405180910390fd5b7f000000000000000000000000000000000000000000000000000000000000000073ffffffffffffffffffffffffffffffffffffffff1663095ea7b37f0000000000000000000000000000000000000000000000000000000000000000836040518363ffffffff1660e01b8152600401610e3d929190611c11565b6020604051808303816000875af1158015610e5c573d6000803e3d6000fd5b505050506040513d601f19601f82011682018060405250810190610e809190611c66565b610ebf576040517f08c379a0000000000000000000000000000000000000000000000000000000008152600401610eb690611feb565b60405180910390fd5b7f000000000000000000000000000000000000000000000000000000000000000073ffffffffffffffffffffffffffffffffffffffff1663617ba0377f0000000000000000000000000000000000000000000000000000000000000000833060006040518563ffffffff1660e01b8152600401610f3f9493929190612046565b600060405180830381600087803b158015610f5957600080fd5b505af1158015610f6d573d6000803e3d6000fd5b50505050600660003373ffffffffffffffffffffffffffffffffffffffff1673ffffffffffffffffffffffffffffffffffffffff16815260200190815260200160002060009054906101000a900460ff1661107e576001600660003373ffffffffffffffffffffffffffffffffffffffff1673ffffffffffffffffffffffffffffffffffffffff16815260200190815260200160002060006101000a81548160ff0219169083151502179055506001339080600181540180825580915050600190039060005260206000200160009091909190916101000a81548173ffffffffffffffffffffffffffffffffffffffff021916908373ffffffffffffffffffffffffffffffffffffffff1602179055505b80600760003373ffffffffffffffffffffffffffffffffffffffff1673ffffffffffffffffffffffffffffffffffffffff16815260200190815260200160002060008282546110cd9190611a7b565b9250508190555080600860008282546110e69190611a7b565b925050819055503373ffffffffffffffffffffffffffffffffffffffff167f2da466a7b24304f47e87fa2e1e5a81b9831ce54fec19055ce277ca2f39ba42c482604051611133919061163a565b60405180910390a250565b6000600180549050905090565b7f000000000000000000000000000000000000000000000000000000000000000081565b6000806002546003546111829190611a7b565b90508042106111955760009150506111a5565b42816111a19190611cff565b9150505b90565b60008054906101000a900473ffffffffffffffffffffffffffffffffffffffff1681565b60055481565b600181815481106111e257600080fd5b906000526020600020016000915054906101000a900473ffffffffffffffffffffffffffffffffffffffff1681565b600460009054906101000a900473ffffffffffffffffffffffffffffffffffffffff1681565b60006001805490501161127f576040517f08c379a000000000000000000000000000000000000000000000000000000000815260040161127690611e7d565b60405180910390fd5b60006001805490508260008151811061129b5761129a61208b565b5b60200260200101516112ad91906120e9565b90506000600182815481106112c5576112c461208b565b5b9060005260206000200160009054906101000a900473ffffffffffffffffffffffffffffffffffffffff16905060006112fc610baf565b905060008111156114a6577f000000000000000000000000000000000000000000000000000000000000000073ffffffffffffffffffffffffffffffffffffffff166369328dec7f000000000000000000000000000000000000000000000000000000000000000083306040518463ffffffff1660e01b815260040161138493929190611b98565b6020604051808303816000875af11580156113a3573d6000803e3d6000fd5b505050506040513d601f19601f820116820180604052508101906113c79190611be4565b507f000000000000000000000000000000000000000000000000000000000000000073ffffffffffffffffffffffffffffffffffffffff1663a9059cbb83836040518363ffffffff1660e01b8152600401611423929190611c11565b6020604051808303816000875af1158015611442573d6000803e3d6000fd5b505050506040513d601f19601f820116820180604052508101906114669190611c66565b6114a5576040517f08c379a000000000000000000000000000000000000000000000000000000000815260040161149c90612166565b60405180910390fd5b5b81600460006101000a81548173ffffffffffffffffffffffffffffffffffffffff021916908373ffffffffffffffffffffffffffffffffffffffff16021790555080600581905550426003819055508173ffffffffffffffffffffffffffffffffffffffff167f7e57d825a2478cc8123a008d7d1e20c0f6e8cbca89a7bc100c9b05ecb3698deb828760405161153d929190612186565b60405180910390a25050505050565b6000604051905090565b600080fd5b600080fd5b600073ffffffffffffffffffffffffffffffffffffffff82169050919050565b600061158b82611560565b9050919050565b61159b81611580565b81146115a657600080fd5b50565b6000813590506115b881611592565b92915050565b6000602082840312156115d4576115d3611556565b5b60006115e2848285016115a9565b91505092915050565b60008115159050919050565b611600816115eb565b82525050565b600060208201905061161b60008301846115f7565b92915050565b6000819050919050565b61163481611621565b82525050565b600060208201905061164f600083018461162b565b92915050565b61165e81611621565b811461166957600080fd5b50565b60008135905061167b81611655565b92915050565b600080fd5b6000601f19601f8301169050919050565b7f4e487b7100000000000000000000000000000000000000000000000000000000600052604160045260246000fd5b6116cf82611686565b810181811067ffffffffffffffff821117156116ee576116ed611697565b5b80604052505050565b600061170161154c565b905061170d82826116c6565b919050565b600067ffffffffffffffff82111561172d5761172c611697565b5b602082029050602081019050919050565b600080fd5b600061175661175184611712565b6116f7565b905080838252602082019050602084028301858111156117795761177861173e565b5b835b818110156117a2578061178e888261166c565b84526020840193505060208101905061177b565b5050509392505050565b600082601f8301126117c1576117c0611681565b5b81356117d1848260208601611743565b91505092915050565b600080604083850312156117f1576117f0611556565b5b60006117ff8582860161166c565b925050602083013567ffffffffffffffff8111156118205761181f61155b565b5b61182c858286016117ac565b9150509250929050565b60006020828403121561184c5761184b611556565b5b600061185a8482850161166c565b91505092915050565b600081519050919050565b600082825260208201905092915050565b6000819050602082019050919050565b61189881611580565b82525050565b60006118aa838361188f565b60208301905092915050565b6000602082019050919050565b60006118ce82611863565b6118d8818561186e565b93506118e38361187f565b8060005b838110156119145781516118fb888261189e565b9750611906836118b6565b9250506001810190506118e7565b5085935050505092915050565b6000602082019050818103600083015261193b81846118c3565b905092915050565b61194c81611580565b82525050565b60006020820190506119676000830184611943565b92915050565b6000819050919050565b600061199261198d61198884611560565b61196d565b611560565b9050919050565b60006119a482611977565b9050919050565b60006119b682611999565b9050919050565b6119c6816119ab565b82525050565b60006020820190506119e160008301846119bd565b92915050565b60006119f282611999565b9050919050565b611a02816119e7565b82525050565b6000602082019050611a1d60008301846119f9565b92915050565b6000604082019050611a386000830185611943565b611a456020830184611943565b9392505050565b7f4e487b7100000000000000000000000000000000000000000000000000000000600052601160045260246000fd5b6000611a8682611621565b9150611a9183611621565b9250828201905080821115611aa957611aa8611a4c565b5b92915050565b600082825260208201905092915050565b7f416d6f756e74206d7573742062652067726561746572207468616e2030000000600082015250565b6000611af6601d83611aaf565b9150611b0182611ac0565b602082019050919050565b60006020820190508181036000830152611b2581611ae9565b9050919050565b7f496e73756666696369656e742062616c616e6365000000000000000000000000600082015250565b6000611b62601483611aaf565b9150611b6d82611b2c565b602082019050919050565b60006020820190508181036000830152611b9181611b55565b9050919050565b6000606082019050611bad6000830186611943565b611bba602083018561162b565b611bc76040830184611943565b949350505050565b600081519050611bde81611655565b92915050565b600060208284031215611bfa57611bf9611556565b5b6000611c0884828501611bcf565b91505092915050565b6000604082019050611c266000830185611943565b611c33602083018461162b565b9392505050565b611c43816115eb565b8114611c4e57600080fd5b50565b600081519050611c6081611c3a565b92915050565b600060208284031215611c7c57611c7b611556565b5b6000611c8a84828501611c51565b91505092915050565b7f5472616e73666572206661696c65640000000000000000000000000000000000600082015250565b6000611cc9600f83611aaf565b9150611cd482611c93565b602082019050919050565b60006020820190508181036000830152611cf881611cbc565b9050919050565b6000611d0a82611621565b9150611d1583611621565b9250828203905081811115611d2d57611d2c611a4c565b5b92915050565b7f4f6e6c79206f776e65722063616e2063616c6c20746869732066756e6374696f60008201527f6e00000000000000000000000000000000000000000000000000000000000000602082015250565b6000611d8f602183611aaf565b9150611d9a82611d33565b604082019050919050565b60006020820190508181036000830152611dbe81611d82565b9050919050565b7f4c6f7474657279206475726174696f6e206e6f74207965742070617373656400600082015250565b6000611dfb601f83611aaf565b9150611e0682611dc5565b602082019050919050565b60006020820190508181036000830152611e2a81611dee565b9050919050565b7f4e6f20706c617965727320696e20746865206c6f747465727900000000000000600082015250565b6000611e67601983611aaf565b9150611e7282611e31565b602082019050919050565b60006020820190508181036000830152611e9681611e5a565b9050919050565b6000819050919050565b611eb081611e9d565b82525050565b600067ffffffffffffffff82169050919050565b611ed381611eb6565b82525050565b600061ffff82169050919050565b611ef081611ed9565b82525050565b600063ffffffff82169050919050565b611f0f81611ef6565b82525050565b600060a082019050611f2a6000830188611ea7565b611f376020830187611eca565b611f446040830186611ee7565b611f516060830185611f06565b611f5e6080830184611f06565b9695505050505050565b6000606082019050611f7d6000830186611943565b611f8a6020830185611943565b611f97604083018461162b565b949350505050565b7f417070726f76616c206661696c65640000000000000000000000000000000000600082015250565b6000611fd5600f83611aaf565b9150611fe082611f9f565b602082019050919050565b6000602082019050818103600083015261200481611fc8565b9050919050565b6000819050919050565b600061203061202b6120268461200b565b61196d565b611ed9565b9050919050565b61204081612015565b82525050565b600060808201905061205b6000830187611943565b612068602083018661162b565b6120756040830185611943565b6120826060830184612037565b95945050505050565b7f4e487b7100000000000000000000000000000000000000000000000000000000600052603260045260246000fd5b7f4e487b7100000000000000000000000000000000000000000000000000000000600052601260045260246000fd5b60006120f482611621565b91506120ff83611621565b92508261210f5761210e6120ba565b5b828206905092915050565b7f5072697a65207472616e73666572206661696c65640000000000000000000000600082015250565b6000612150601583611aaf565b915061215b8261211a565b602082019050919050565b6000602082019050818103600083015261217f81612143565b9050919050565b600060408201905061219b600083018561162b565b6121a8602083018461162b565b939250505056fea2646970667358221220f2b765b08f58d6f7f4b532d7155b7f9acc14a5b332c34eb53f8ce62f8d4deb1e64736f6c634300081c0033",
  "linkReferences": {},
  "deployedLinkReferences": {}
}